:020000040800F2
:1000000000280020F1190008411A0008411A0008D0
:10001000411A0008411A0008411A000800000000B7
:10002000000000000000000000000000411A00086D
:10003000411A000800000000411A0008410F0008A2
:10004000411A0008411A0008411A0008411A000824
:10005000411A0008411A0008411A0008411A000814
:10006000411A0008411A0008411A0008411A000804
:10007000411A0008411A0008411A0008411A0008F4
:10008000411A0008411A0008411A0008411A0008E4
:10009000411A0008411A0008411A0008411A0008D4
:1000A000411A0008411A0008411A0008411A0008C4
:1000B000411A0008411A0008411A0008411A0008B4
:1000C000411A0008411A0008411A0008411A0008A4
:1000D000411A0008C5160008F1160008411A000868
:1000E000411A0008411A000800000000411A0008E7
:1000F000411A0008411A0008411A0008411A000874
:10010000411A0008411A0008411A0008411A000863
:10011000411A0008411A0008411A0008411A000853
:10012000411A0008411A0008411A0008411A000843
:1001300010B5054C237833B9044B13B10448AFF321
:1001400000800123237010BD10000020000000007B
:100150008C1A000808B5034B1BB103490348AFF3E1
:10016000008008BD00000000140000208C1A000868
:1001700080B483B000AF0346FB710B46BB711346DE
:100180007B71BB79072B52D8FB79022B37D0022B1E
:1001900000F3A980002B02D0012B18D0A3E0544B10
:1001A0001B68BA799200032101FA02F2D243114688
:1001B0004F4A0B4013604E4B1B687979BA79920015
:1001C00001FA02F211464A4A0B4313608BE0494B95
:1001D0001B68BA799200032101FA02F2D243114658
:1001E000444A0B401360434B1B687979BA799200FB
:1001F00001FA02F211463F4A0B43136073E03E4B93
:100200001B68BA799200032101FA02F2D243114627
:10021000394A0B401360384B1B687979BA799200E0
:1002200001FA02F21146344A0B4313605BE0BB79DA
:10023000072B57D9BB790F2B54D8BB79083BBB711F
:10024000FB79022B36D0022B4DDC002B02D0012B88
:1002500018D048E0264B5B68BA799200032101FA76
:1002600002F2D2431146224A0B405360204B5B6896
:100270007979BA79920001FA02F211461C4A0B43CD
:10028000536030E01B4B5B68BA799200032101FA9E
:1002900002F2D2431146174A0B405360154B5B687C
:1002A0007979BA79920001FA02F21146114A0B43A8
:1002B000536018E0104B5B68BA799200032101FA91
:1002C00002F2D24311460C4A0B4053600A4B5B6862
:1002D0007979BA79920001FA02F21146064A0B4383
:1002E000536000E000BF00BF0C37BD4680BC7047C4
:1002F00000080140000C01400010014080B483B0B0
:1003000000AF0346FB710B46BB7113467B71BB7993
:10031000072B58D8FB79022B3BD0022B00F3B5807A
:10032000002B02D0012B1AD0AFE05A4B1B68BA79D0
:1003300092000232032101FA02F2D2431146554AD9
:100340000B401360534B1B687979BA7992000232E3
:1003500001FA02F211464F4A0B43136095E04E4BEF
:100360001B68BA7992000232032101FA02F2D243E9
:100370001146494A0B401360474B1B687979BA799B
:100380009200023201FA02F21146434A0B43136013
:100390007BE0424B1B68BA7992000232032101FADA
:1003A00002F2D24311463D4A0B4013603B4B1B689F
:1003B0007979BA799200023201FA02F21146374A8B
:1003C0000B43136061E0BB79072B5DD9BB790F2B21
:1003D0005AD8BB79083BBB71FB79022B3AD0022B70
:1003E00053DC002B02D0012B1AD04EE0294B5B6866
:1003F000BA7992000232032101FA02F2D243114685
:10040000244A0B405360234B5B687979BA79920098
:10041000023201FA02F211461E4A0B43536034E0E5
:100420001D4B5B68BA7992000232032101FA02F295
:10043000D2431146184A0B405360174B5B687979D9
:10044000BA799200023201FA02F21146124A0B43C3
:1004500053601AE0114B5B68BA79920002320321B3
:1004600001FA02F2D24311460C4A0B4053600B4B87
:100470005B687979BA799200023201FA02F2114688
:10048000064A0B43536000E000BF00BF0C37BD4677
:1004900080BC704700080140000C01400010014082
:1004A00080B483B000AF0346FB710B46BB711346AB
:1004B0007B717B79012B2AD1FB79022B1CD0022B7B
:1004C00053DC002B02D0012B0BD04EE0294BDB6814
:1004D000BA79012101FA02F21146264A0B43D36090
:1004E00043E0254BDB68BA79012101FA02F211469B
:1004F000214A0B43D36038E0204BDB68BA790121F5
:1005000001FA02F211461D4A0B43D3602DE0FB793C
:10051000022B1ED0022B28DC002B02D0012B0CD08A
:1005200023E0144BDB68BA79012101FA02F2D243CD
:100530001146104A0B40D36017E00F4BDB68BA79C5
:10054000012101FA02F2D24311460B4A0B40D3605B
:100550000BE00A4BDB68BA79012101FA02F2D243BF
:100560001146064A0B40D36000BF00BF0C37BD46A2
:1005700080BC704700080140000C014000100140A1
:1005800080B485B000AF03460A46FB711346BB71C9
:100590000023FB73FB79022B1AD0022B22DC002BE9
:1005A00002D0012B0AD01DE0114B9A68BB7922FAC8
:1005B00003F3DBB203F00103FB7313E00D4B9A6806
:1005C000BB7922FA03F3DBB203F00103FB7309E00A
:1005D000094B9A68BB7922FA03F3DBB203F00103FB
:1005E000FB7300BFFB7B18461437BD4680BC7047C9
:1005F00000080140000C01400010014080B584B0AB
:1006000000AF03460A46FB711346BB710223FB731E
:10061000BA79FB7911461846FFF7B2FF0346012B62
:1006200002D10223FB7301E00123FB73FB7B18461D
:100630001037BD4680BD000080B582B000AF0023FA
:10064000FB710023BB711CE0BB79134AD35CFF2B09
:100650001BD0BB79104AD35C1B09DAB2BB790E49B7
:10066000CB5C03F00F03DBB219461046FFF7C6FF61
:100670000346012B02D1FB790133FB71BB790133B6
:10068000BB71BB79222BDFD900E000BFFB79184694
:100690000837BD4680BD00BF0C00002080B483B089
:1006A00000AF0346FB71FB791F2B0AD80F4B1B6869
:1006B000FA79012101FA02F211460C4A0B43136048
:1006C0000FE0FB793B2B0CD8FB79203BFB71084BEF
:1006D0001B68FA79012101FA02F21146044A0B4320
:1006E000136000BF0C37BD4680BC704700E100E0DE
:1006F00004E100E080B582B000AF0023FB7167E346
:10070000FA79C24913465B0013440B441B78022B51
:1007100000F03C82022B00F35883002B03D0012B06
:1007200000F01A8151E30221032000F07FFBFA79E7
:10073000B64913465B0013440B4402331B78082B65
:1007400000F23E8301A252F823F000BF71070008B7
:10075000A7070008DD07000813080008490800087B
:100760007F080008B5080008EB0800082109000808
:10077000FA79A64913465B0013440B4401331B78F6
:10078000012219460020FFF7F3FCFA799F4913462E
:100790005B0013440B4401331B78002219460020F0
:1007A000FFF7ACFDD7E0FA79984913465B00134494
:1007B0000B4401331B78022219460020FFF7D8FCB6
:1007C000FA79924913465B0013440B4401331B78BA
:1007D000002219460020FFF791FDBCE0FA798B4911
:1007E00013465B0013440B4401331B780322194664
:1007F0000020FFF7BDFCFA79844913465B001344DF
:100800000B4401331B78002219460020FFF776FDC8
:10081000A1E0FA797D4913465B0013440B44013390
:100820001B78012219460020FFF7A2FCFA797749CC
:1008300013465B0013440B4401331B780122194615
:100840000020FFF75BFD86E0FA79704913465B00F4
:1008500013440B4401331B78022219460020FFF792
:1008600087FCFA79694913465B0013440B44013352
:100870001B78012219460020FFF740FD6BE0FA7952
:10088000624913465B0013440B4401331B78032277
:1008900019460020FFF76CFCFA795C4913465B00AF
:1008A00013440B4401331B78012219460020FFF743
:1008B00025FD50E0FA79554913465B0013440B447B
:1008C00001331B78002219460020FFF751FCFA790A
:1008D0004E4913465B0013440B4401331B7800223E
:1008E00019460020FFF70AFD35E0FA79474913461B
:1008F0005B0013440B4401331B780022194600208F
:10090000FFF736FCFA79414913465B0013440B4468
:1009100001331B78012219460020FFF7EFFC1AE093
:10092000FA793A4913465B0013440B4401331B78B0
:10093000002219460020FFF71BFCFA7933491346C1
:100940005B0013440B4401331B780222194600203C
:10095000FFF7D4FC00BF33E20321032000F066FA66
:10096000FA792A4913465B0013440B4402331B787F
:10097000082B00F2278201A252F823F0A1090008F7
:10098000D7090008110A0008470A00087D0A000874
:10099000B30A0008E90A00081F0B0008550B0008FD
:1009A000FA791A4913465B0013440B4401331B7850
:1009B000012219460120FFF7DBFBFA7913491346A0
:1009C0005B0013440B4401331B78002219460120BD
:1009D000FFF794FCD9E0FA790C4913465B00134405
:1009E0000B4401331B78022219460120FFF7C0FB9C
:1009F000FA79064913465B0013440B4401331B7814
:100A0000002219460120FFF779FCBEE0000000201B
:100A1000FA79C14913465B0013440B4401331B7838
:100A2000032219460120FFF7A3FBFA79BA491346BE
:100A30005B0013440B4401331B780022194601204C
:100A4000FFF75CFCA1E0FA79B34913465B0013445D
:100A50000B4401331B78012219460120FFF788FB64
:100A6000FA79AD4913465B0013440B4401331B78FC
:100A7000012219460120FFF741FC86E0FA79A649D8
:100A800013465B0013440B4401331B7802221946C2
:100A90000120FFF76DFBFA799F4913465B00134471
:100AA0000B4401331B78012219460120FFF726FC75
:100AB0006BE0FA79984913465B0013440B44013309
:100AC0001B78032219460120FFF752FBFA7992495D
:100AD00013465B0013440B4401331B780122194673
:100AE0000120FFF70BFC50E0FA798B4913465B00BD
:100AF00013440B4401331B78002219460120FFF7F1
:100B000037FBFA79844913465B0013440B440133E5
:100B10001B78002219460120FFF7F0FB35E0FA7937
:100B20007D4913465B0013440B4401331B780022BC
:100B300019460120FFF71CFBFA79774913465B0041
:100B400013440B4401331B78012219460120FFF79F
:100B5000D5FB1AE0FA79704913465B0013440B4445
:100B600001331B78002219460120FFF701FBFA79B7
:100B7000694913465B0013440B4401331B7802227E
:100B800019460120FFF7BAFB00BF1BE10421032037
:100B900000F04CF9FA79604913465B0013440B44AA
:100BA00002331B78082B00F20F8101A252F823F0C8
:100BB000D50B00080B0C0008410C0008770C00084E
:100BC000AD0C0008E30C00081D0D0008530D0008D3
:100BD000890D0008FA79504913465B0013440B4411
:100BE00001331B78012219460220FFF7C1FAFA7976
:100BF000494913465B0013440B4401331B78002220
:100C000019460220FFF77AFBD9E0FA7942491346E8
:100C10005B0013440B4401331B7802221946022067
:100C2000FFF7A6FAFA793C4913465B0013440B44DC
:100C300001331B78002219460220FFF75FFBBEE05C
:100C4000FA79354913465B0013440B4401331B7892
:100C5000032219460220FFF78BFAFA792E49134630
:100C60005B0013440B4401331B7800221946022019
:100C7000FFF744FBA3E0FA79274913465B001344CE
:100C80000B4401331B78012219460220FFF770FA4A
:100C9000FA79214913465B0013440B4401331B7856
:100CA000012219460220FFF729FB88E0FA791A4948
:100CB00013465B0013440B4401331B780222194690
:100CC0000220FFF755FAFA79134913465B001344E3
:100CD0000B4401331B78012219460220FFF70EFB5B
:100CE0006DE0FA790C4913465B0013440B44013361
:100CF0001B78032219460220FFF73AFAFA790649CF
:100D000013465B0013440B4401331B780122194640
:100D10000220FFF7F3FA52E000000020FA7931498F
:100D200013465B0013440B4401331B780022194621
:100D30000220FFF71DFAFA792A4913465B00134493
:100D40000B4401331B78002219460220FFF7D6FA24
:100D500035E0FA79234913465B0013440B44013311
:100D60001B78002219460220FFF702FAFA791D4982
:100D700013465B0013440B4401331B7801221946D0
:100D80000220FFF7BBFA1AE0FA79164913465B0016
:100D900013440B4401331B78002219460220FFF74D
:100DA000E7F9FA790F4913465B0013440B4401330A
:100DB0001B78022219460220FFF7A0FA00BF03E0C9
:100DC00000BF02E000BF00E000BFFB790133FB7110
:100DD000FB79202B7FF694AC00BF00BF0837BD46DF
:100DE00080BD00BF0000002080B400AF0E4B1B6828
:100DF0000D4A43F00103136000BF0B4B1B685B08F7
:100E000003F00103002BF8D0074B5B68064A23F080
:100E100001035360044B5B68034A23F002035360F1
:100E200000BFBD4680BC70470010024080B483B054
:100E300000AF03460A46FB711346BB71BB791F2BFB
:100E40002AD8FB79032B1CD0032B26DC012B02D0E4
:100E5000022B0BD021E0134B5B69BA79012101FA17
:100E600002F211460F4A0B43536116E00D4BDB694A
:100E7000BA79012101FA02F211460A4A0B43D36101
:100E80000BE0084B9B69BA79012101FA02F2114685
:100E9000044A0B43936100E000BF00BF0C37BD461E
:100EA00080BC70470010024080B584B000AF03469C
:100EB000FB71FB79B42B14D8FB794FF47A7202FBE7
:100EC00003F39B08094AA2FB03239B089BB203F58B
:100ED0007A73FB81FB890122194644F6206000F0F9
:100EE0006DF800BF1037BD4680BD00BF176CC1163E
:100EF00080B483B000AF7860104A7B6853600F4BBA
:100F00001B680E4A43F00103136000BF0B4B1B68C4
:100F10001B0C03F00103002BF8D0084B1B68074A99
:100F200023F001031360054B00225A60034B00229B
:100F30009A6000BF0C37BD4680BC704710E000E0EF
:100F400080B582B000AF124B1B68002B11D1114B42
:100F50001B68104A23F0020313600E4B1B680D4AF6
:100F600023F0010313600B4B00225A60094B00224F
:100F70009A60094B1B689847064B1B681B0CDBB239
:100F800003F00103FB7100BF0837BD4680BD00BF01
:100F90003000002010E000E02C00002080B582B07E
:100FA00000AF78607B684FF47A7202FB03F3184657
:100FB000FFF79EFF00BF0837BD4680BD80B584B0F7
:100FC00000AFF860B9601346FB71334B1A6AFB79C6
:100FD000013B9B0022FA03F303F00103002B4FD1E6
:100FE0000B210320FFF722FF00210320FFF71EFF44
:100FF00002210320FFF71AFFFB790733DBB203223C
:1010000019460020FFF7B4F8FB790733DBB2022260
:1010100019460020FFF772F91F4B07229A621E4BF8
:101020009B691D4A43F0700393611B4B1B6AFA795D
:10103000013A92000132012101FA02F21146164AE8
:101040000B431362144B1B6AFA79013A9200012197
:1010500001FA02F21146104A0B4313620E4B5B6C0D
:101060000D4A43F4004353640B4B1B680A4A43F098
:1010700001031360084B1B68074A23F00803136041
:10108000054AFB68013BD362034ABB68536300BF58
:101090001037BD4680BD00BF002C014080B584B034
:1010A00000AFF860B9601346FB71404B1A6AFB79D8
:1010B000013B9B0022FA03F303F00103002B6AD1EA
:1010C00001210220FFF7B2FE00210320FFF7AEFE50
:1010D000FB79012B02D0FB79022B14D102210320D2
:1010E000FFF7A4FEFB790533DBB20322194600208B
:1010F000FFF73EF8FB790533DBB2022219460020E8
:10110000FFF7FCF819E0FB79032B02D0FB79042BE5
:1011100013D103210320FFF789FEFB79033BDBB2E8
:10112000032219460120FFF723F8FB79033BDBB2CA
:10113000022219460120FFF7E1F81C4B07229A62B0
:101140001A4B9B69194A43F070039361174B1B6A52
:10115000FA79013A92000132012101FA02F21146B4
:10116000124A0B431362114B1B6AFA79013A92003F
:10117000012101FA02F211460C4A0B4313620B4B98
:101180001B680A4A43F001031360084B1B68074AB7
:1011900023F008031360054AFB68013BD362034A4E
:1011A000BB68536300BF1037BD4680BD00040040DC
:1011B00080B582B000AF78600B46FB701346BB7001
:1011C0005E4B1A6ABB78013B9B0022FA03F303F0E3
:1011D0000103002B7CD101210220FFF727FE002113
:1011E0000320FFF723FEBB78012B02D0BB78022B34
:1011F00014D102210320FFF719FEBB780533DBB2BF
:10120000002219460020FEF7B3FFBB780533DBB29E
:10121000022219460020FFF771F819E0BB78032B72
:1012200002D0BB78042B13D103210320FFF7FEFD6E
:10123000BB78033BDBB2002219460120FEF798FF82
:10124000BB78033BDBB2022219460120FFF756F8B8
:101250003A4B07229A62BB78012B02D0BB78022B53
:101260000CD1364B9B69BA78013AD200012101FAC0
:1012700002F21146314A0B43936111E0BB78032B14
:1012800002D0BB78042B0BD12C4B9B69BA78033A64
:10129000D200012101FA02F21146284A0B43936160
:1012A000264B1B6ABA78013A9200012101FA02F238
:1012B0001146224A0B431362204B1B681F4A43F01E
:1012C000010313601D4B1B681C4A23F008031360C5
:1012D000FB78012B0ED1194B1B6ABA78013A9200A8
:1012E0000132012101FA02F2D2431146134A0B40A6
:1012F00013621BE0FB78022B18D1104B1B6ABA78E3
:10130000013A9200012101FA02F211460B4A0B4305
:1013100013620A4B1B6ABA78013A9200013201212A
:1013200001FA02F21146054A0B431362034A7B6835
:10133000013BD36200BF0837BD4680BD00040040BA
:1013400080B483B000AF044B9B6B7B607B68184616
:101350000C37BD4680BC70470004004080B500AF2C
:101360000E210320FFF762FD02210320FFF75EFD3F
:1013700000210320FFF75AFD032209210020FEF778
:10138000F7FE022209210020FEF7B8FF00220A2101
:101390000020FEF7EDFE02220A210020FEF7AEFF3C
:1013A000644BDB68634A23F40053D360614B002233
:1013B0001A60604BDB685F4A23F48053D3605D4B57
:1013C0001B695C4A23F4805313615A4B1B69594AC9
:1013D00023F400531361574BDB68564A43F008036C
:1013E000D360544BDB68534A43F00403D360514B42
:1013F00040F241329A602520FFF750F94D4BDB68EF
:101400004C4A43F02003D3604A4B1B69494A23F4FA
:1014100000631361474B1B69464A23F48043136101
:10142000444B5B69434A23F020035361414B5B69A2
:10143000404A23F0080353613E4B5B693D4A23F069
:10144000020353613B4BDB683A4A43F40053D360D9
:1014500011210220FFF7EAFC02210320FFF7E6FC3E
:1014600000210320FFF7E2FC032202210020FEF707
:101470007FFE022202210020FEF740FF002203210E
:101480000020FEF775FE012203210020FEF736FF43
:10149000294BDB68284A23F40053D360264B0022F3
:1014A0001A60254BDB68244A23F48053D360224B17
:1014B0001B69214A23F4805313611F4B1B691E4A89
:1014C00023F4005313611C4BDB681B4A43F00803F1
:1014D000D360194BDB68184A43F00403D360164B02
:1014E00040F241329A60144B1B69134A23F40063A3
:1014F0001361114B1B69104A23F4804313610E4B97
:101500005B690D4A23F0200353610B4B5B690A4A68
:1015100023F008035361084B5B69074A23F0020379
:101520005361054BDB68044A43F40053D36000BFAA
:1015300080BD00BF003801400044004080B483B04B
:1015400000AF03460A46FB711346BB71FB79012BC2
:1015500011D1154ABB79536000BF134B1B689B091F
:1015600003F00103002BF8D00F4B1B680E4A23F049
:101570004003136013E0FB79022B10D10B4ABB79B7
:10158000536000BF094B1B689B0903F00103002B4C
:10159000F8D0064B1B68054A23F04003136000BFD8
:1015A0000C37BD4680BC7047003801400044004005
:1015B00080B584B000AF03463960FB713B68FB60C7
:1015C00009E0FB681A78FB7911461846FFF7B6FF69
:1015D000FB680133FB60FB681B78002BF1D100BF77
:1015E00000BF1037BD4680BD80B586B000AF034652
:1015F000FB800023FB75FB88092B26D8FB88DBB218
:101600003033DBB219460220FFF798FF37E0FA8843
:101610001D4BA3FB0213D9080B469B000B445B0038
:10162000D31A9AB297F91730D2B218333B4403F861
:101630000C2CFB88144AA2FB0323DB08FB8097F9E0
:101640001730DBB20133DBB2FB75FB88002BDED138
:1016500011E097F91730DBB2013BDBB2FB7597F96C
:10166000173018333B4413F80C3C3033DBB21946C7
:101670000220FFF763FF97F91730002BE9DC00BF6A
:101680001837BD4680BD00BFCDCCCCCC80B483B074
:1016900000AF03463960FB71FB79012B03D1074A88
:1016A0003B68136005E0FB79022B02D1044A3B68DA
:1016B000136000BF0C37BD4680BC7047340000206B
:1016C0003800002080B500AF074B1B68002B09D005
:1016D000064B00221A60044B1B68044A5268D2B2BF
:1016E0001046984700BF80BD3400002000380140FC
:1016F00080B500AF074B1B68002B09D0064B0022BA
:101700001A60044B1B68044A5268D2B210469847CC
:1017100000BF80BD380000200044004080B500AF0D
:1017200001220A214EF66020FFF7B8FC02220121B7
:101730004EF66020FFF73CFD00BF80BD80B582B053
:1017400000AFFFF7FDFD03469BB2A3F58F43603B5F
:10175000FB80FB8848F2606202FB03F3044AA2FBB1
:101760000323DB0CBB80BB8818460837BD4680BD11
:1017700083DE1B4380B582B000AF0346FB71FB796B
:10178000412B02D0FB79612B02D100F071F810E0FF
:10179000FB79522B02D0FB79722B02D100F084F836
:1017A00007E0FB794F2B02D0FB796F2B01D100F0C2
:1017B00099F8094B1B781A460D210220FEF770FE9E
:1017C000054B1B7883F00103DAB2034B1A7000BF9C
:1017D0000837BD4680BD00BF3F00002080B500AF88
:1017E000FFF702FBFEF786FFFFF7B8FD1D4901205A
:1017F000FFF74CFFFFF792FF0020FFF755FB00F0CB
:101800009FF800F0BBF8184B1B78DBB2002B24D0FC
:10181000B420FFF749FBFFF791FF03460A2B07D9D6
:10182000114B1B78DBB20133DAB20F4B1A7002E0B6
:101830000D4B01221A700C4B1B78DBB2042B0CD120
:101840000020FFF731FB084B00221A70074B1B7872
:10185000DBB2013BDAB2054B1A704FF47A70FFF736
:101860009DFBCEE7751700083E0000203D000020DC
:1018700080B500AF0A4B1B78DBB21A46094B1B78C8
:10188000DBB2D31A002B04DD59210120FFF756FEED
:1018900003E04E210120FFF751FE00BF80BD00BFD5
:1018A0003C0000203D00002080B500AF0B4B1B78B2
:1018B000DBB21A460A4B1B78DBB2D31A002B07DDCA
:1018C000074B1B78DBB20133DAB2054B1A7003E029
:1018D0004E210120FFF732FE00BF80BD3C000020FA
:1018E0003D00002080B500AF124B1B78DBB21A46DA
:1018F000114B1B78DBB2D31A002B0FDDFFF71EFF55
:101900000346092B0AD80D4B01221A700A4B1B788B
:10191000DBB20133DAB2084B1A7008E0054B1B78D2
:10192000DBB2002B03D14E210120FFF707FE00BFE1
:1019300080BD00BF3C0000203D0000203E00002094
:1019400080B500AF41F28830FFF728FB084902203C
:10195000FFF72EFE07490220FFF72AFE0649022064
:10196000FFF726FE02490220FFF722FE00BF80BDDE
:10197000A41A0008F41A0008441B000880B500AF40
:10198000FEF75AFE03461A46134B1A7013490220FB
:10199000FFF70EFE104B1B78DBB29AB2104B1B7890
:1019A000DBB29BB2D31A9BB21846FFF71DFE0D495E
:1019B0000220FFF7FDFD0C490220FFF7F9FD084B5F
:1019C0001B78DBB29BB21846FFF70EFE07490220D8
:1019D000FFF7EEFD00BF80BD3C000020941B000817
:1019E0003D000020B01B0008B81B0008D41B0008F5
:1019F0000D488546AFF300800C480D490D4A002381
:101A000002E0D458C4500433C4188C42F9D30A4AB3
:101A10000A4C002301E013600432A242FBD300F021
:101A200011F8FFF7DBFEFEE7002800200000002091
:101A300010000020E81B00081000002040000020DB
:101A4000FEE7000070B500260C4D0D4C641BA41081
:101A5000A64209D100F01AF800260A4D0A4C641B70
:101A6000A410A64205D170BD55F8043B9847013635
:101A7000EEE755F8043B98470136F2E7E01B000813
:101A8000E01B0008E01B0008E41B0008F8B500BFDD
:101A9000F8BC08BC9E467047F8B500BFF8BC08BC4F
:041AA0009E467047A7
:101AA4002A2A2A2A2A2A2A2A2A2A2A2A2A2A2A2A92
:101AB4002A2A2A2A2A2A2A2A2A2A2A2A2A2A2A2A82
:101AC4002A2A2A2A2A2A2A2A2A2A2A2A2A2A2A2A72
:101AD4002A2A2A2A2A2A2A2A2A2A2A2A2A2A2A2A62
:101AE4002A2A2A2A2A2A2A2A2A2A2A2A0D0A0000E3
:101AF4002A2A2A2A2A2A2A2A2A2A2A2A2A2A2A2A42
:101B04002A2A2A2A2A2A2A2A2A2A2A2A2A2A2A2A31
:101B14002A2A2A2A2057454C434F4D45202A2A2A4F
:101B24002A2A2A2A2A2A2A2A2A2A2A2A2A2A2A2A11
:101B34002A2A2A2A2A2A2A2A2A2A2A2A0D0A000092
:101B44002A2A2A2A2A2A2A2A2A2A2A2A2A2A2A2AF1
:101B54002A2A2A2A2A2A2A2A2A2A2A2A2A2A2A2AE1
:101B64002A2A20534D41525420474152414745208F
:101B74002A2A2A2A2A2A2A2A2A2A2A2A2A2A2A2AC1
:101B84002A2A2A2A2A2A2A2A2A2A2A2A0D0A000042
:101B94004E756D626572206F6620417661696C6175
:101BA400626C6520536C6F74733A200020536C6F21
:101BB400740D0A004E756D626572206F6620526561
:101BC40073657276656420536C6F74733A200000F9
:0C1BD40020536C6F740D0A0D0A00000015
:041BE00055010008A3
:041BE40031010008C3
:101BE800020D02000008000108FFFFFF0001FF00CE
:04000005080019F1E5
:00000001FF
