:100000000C9446000C9465000C9465000C946500FB
:100010000C9465000C9465000C9465000C946500CC
:100020000C9465000C9465000C9465000C946500BC
:100030000C9465000C9465000C94CB150C941D1663
:100040000C9465000C9465000C9465000C9465009C
:100050000C9465000C9454080C9465000C94650095
:100060000C9465000C94B8170C9465000C94650012
:100070000C9465000C9465000C9465000C9465006C
:100080000C9465000C9465000C94650011241FBE4F
:10009000CFEFD0E1DEBFCDBF12E0A0E0B1E0EAECEF
:1000A000FFE300E00BBF02C007900D92A632B1073C
:1000B000D9F712E0A6E2B2E001C01D92AA33B1075F
:1000C000E1F70E94F6180C94E31F0C940000EF92E5
:1000D000FF920F931F937B018C0120E030E040E002
:1000E0005FE40E94130488238CF0C801B70120E06C
:1000F00030E040E05FE40E94DF010E94D1049B01F8
:10010000AC01205030404040504806C0C801B70103
:100110000E94D1049B01AC01B901CA011F910F914A
:10012000FF90EF900895A0E0B0E0E9E9F0E00C94D2
:10013000D51CDC012B01FA019C91923008F439C1E5
:10014000EB018881823008F433C1943069F4843043
:1001500009F02FC111969C9111978981981709F484
:1001600028C1A8E1B1E025C1843009F421C1823061
:10017000A9F4923009F01DC19A01AD0188E0EA01AD
:100180000990AE01E90109929E018150C1F7E20197
:10019000898111969C918923818308C1923009F449
:1001A00007C112962D903C901397EB018A819B8199
:1001B0001496AD90BD90CD90DC901797EC80FD80AB
:1001C0000E811F819101281B390BB90137FF04C033
:1001D00066277727621B730B603271050CF061C0D4
:1001E000121613066CF537014801062E04C09694CA
:1001F0008794779467940A94D2F721E030E040E046
:1002000050E004C0220F331F441F551F6A95D2F7D8
:1002100021503040404050402E213F214023512367
:10022000211531054105510521F021E030E040E084
:1002300050E079018A01E628F728082919293CC0ED
:10024000232BD1F1260E371E35014601062E04C0A0
:1002500096948794779467940A94D2F721E030E0DB
:1002600040E050E004C0220F331F441F551F6A9521
:10027000D2F721503040404050402A213B214C21B0
:100280005D21211531054105510521F021E030E0C6
:1002900040E050E059016A01A628B728C828D928AB
:1002A0000BC0821593052CF01C01AA24BB24650108
:1002B00003C0EE24FF24870111969C91D201119670
:1002C0008C91981709F445C0992339F0A80197013A
:1002D0002A193B094C095D0906C0A60195012E1992
:1002E0003F09400B510B57FD08C011823382228217
:1002F00024833583468357831DC081E08183338205
:10030000228288279927DC01821B930BA40BB50B53
:1003100084839583A683B7830DC0220F331F441FA8
:10032000551F2483358346835783828193810197A8
:10033000938382832481358146815781DA01C90103
:100340000197A109B1098F5F9F4FAF4FBF4328F3BA
:100350000BC0918333822282EA0CFB1C0C1D1D1DF5
:10036000E482F5820683178383E0808324813581CC
:100370004681578157FF1AC0C901AA2797FDA0954A
:10038000BA2F81709070A070B070569547953795D0
:100390002795822B932BA42BB52B84839583A6833F
:1003A000B78382819381019693838283DF0101C0A9
:1003B000D201CD01CDB7DEB7E2E10C94F11CA0E291
:1003C000B0E0E5EEF1E00C94E11C69837A838B8365
:1003D0009C832D833E834F835887E9E0EE2EF12CDA
:1003E000EC0EFD1ECE010196B7010E94C2068E01E1
:1003F0000F5E1F4FCE010596B8010E94C2068A8982
:1004000091E089278A8BC701B801AE01475E5F4F33
:100410000E9493000E94ED05A096E6E00C94FD1C5E
:10042000A0E2B0E0E6E1F2E00C94E11C69837A839B
:100430008B839C832D833E834F835887F9E0EF2E77
:10044000F12CEC0EFD1ECE010196B7010E94C206F2
:100450008E010F5E1F4FCE010596B8010E94C206A5
:10046000C701B801AE01475E5F4F0E9493000E9432
:10047000ED05A096E6E00C94FD1CA0E2B0E0E3E4FC
:10048000F2E00C94D51C69837A838B839C832D8343
:100490003E834F835887CE010196BE01675F7F4F31
:1004A0000E94C206CE010596BE016F5E7F4F0E947C
:1004B000C2069985923088F089898230C8F09430DC
:1004C00019F4823051F404C0843029F4923081F45C
:1004D00088E191E0C6C0923049F420E09A858A898B
:1004E000981321E02A87CE010996BBC0823049F4D7
:1004F00020E09A858A89981321E02A8BCE014196C3
:10050000B0C02D843E844F8458886D887E888F8843
:10051000988CEE24FF248701AA24BB24650140E0C7
:1005200050E060E070E0E0E0F0E0C10181709070C8
:10053000892BE9F0E60CF71C081D191D9A01AB0187
:100540002A0D3B1D4C1D5D1D80E090E0A0E0B0E059
:10055000E614F7040805190520F481E090E0A0E016
:10056000B0E0BA01A901480F591F6A1F7B1FAA0CEE
:10057000BB1CCC1CDD1C97FE08C081E090E0A0E015
:10058000B0E0A82AB92ACA2ADB2A3196E032F1055E
:1005900049F0660C771C881C991C56944794379434
:1005A0002794C3CFFA85EA892B893C898B859C8562
:1005B000280F391F2E5F3F4F17C0CA0181709070FE
:1005C000892B61F016950795F794E79480E090E009
:1005D000A0E0B0E8E82AF92A0A2B1B2B769567954C
:1005E000579547952F5F3F4F77FDE7CF0CC0440FDE
:1005F000551F661F771F17FD4160EE0CFF1C001F83
:10060000111F21503040403090E0590790E06907B9
:1006100090E4790760F32B8F3C8FDB01CA018F7761
:100620009070A070B07080349105A105B10561F49F
:1006300047FD0AC0E114F1040105110529F0405CF1
:100640005F4F6F4F7F4F40781A8EFE1711F081E099
:100650008A8F4D8F5E8F6F8F78A383E0898FCE0155
:1006600049960E94ED05A096E2E10C94F11CA8E1E8
:10067000B0E0EDE3F3E00C94DD1C69837A838B83B7
:100680009C832D833E834F835887B9E0EB2EF12C5A
:10069000EC0EFD1ECE010196B7010E94C2068E012E
:1006A0000F5E1F4FCE010596B8010E94C206298534
:1006B000223008F47EC03989323010F4B8017CC091
:1006C0008A859A8989278A87243011F0223031F46B
:1006D000231709F06EC068E171E06EC0343039F460
:1006E0001D861E861F86188A1C861B8604C0323013
:1006F00021F484E08987B7015FC02B853C858B8915
:100700009C89281B390B3C872B87ED84FE840F8541
:100710001889AD88BE88CF88D88CEA14FB040C05F4
:100720001D0540F4EE0CFF1C001F111F215030402E
:100730003C872B8720E030E040E050E080E090E014
:10074000A0E0B0E460E070E0EA14FB040C051D05D5
:1007500040F0282B392B4A2B5B2BEA18FB080C099D
:100760001D09B695A79597958795EE0CFF1C001F60
:10077000111F6F5F7F4F6F31710531F7DA01C901CA
:100780008F779070A070B07080349105A105B1058D
:1007900061F427FD0AC0E114F1040105110529F0F7
:1007A000205C3F4F4F4F5F4F20782D873E874F870C
:1007B000588BBE01675F7F4FCB010E94ED056896A5
:1007C000EAE00C94F91CA8E1B0E0E9EEF3E00C9447
:1007D000E11C69837A838B839C832D833E834F83C3
:1007E000588789E0E82EF12CEC0EFD1ECE01019613
:1007F000B7010E94C2068E010F5E1F4FCE01059603
:10080000B8010E94C2068985823040F08989823011
:1008100028F0C701B8010E943A0701C08FEF68961F
:10082000E6E00C94FD1CA8E1B0E0E9E1F4E00C94F2
:10083000E11C69837A838B839C832D833E834F8362
:10084000588789E0E82EF12CEC0EFD1ECE010196B2
:10085000B7010E94C2068E010F5E1F4FCE010596A2
:10086000B8010E94C2068985823040F089898230B1
:1008700028F0C701B8010E943A0701C08FEF6896BF
:10088000E6E00C94FD1CA8E1B0E0E9E4F4E00C948F
:10089000E11C69837A838B839C832D833E834F8302
:1008A000588789E0E82EF12CEC0EFD1ECE01019652
:1008B000B7010E94C2068E010F5E1F4FCE01059642
:1008C000B8010E94C2068985823040F08989823051
:1008D00028F0C701B8010E943A0701C081E068967C
:1008E000E6E00C94FD1CA8E0B0E0E9E7F4E00C942D
:1008F000DE1C9B01AC0183E08983DA01C9018827F2
:10090000B7FD83959927AA27BB27B82E2115310556
:100910004105510519F482E089833AC08823A9F082
:10092000203080E0380780E0480780E8580729F445
:1009300060E070E080E09FEC30C0EE24FF2487018F
:10094000E21AF30A040B150B02C079018A018EE149
:10095000C82ED12CDC82CB82ED82FE820F831887D9
:10096000C801B7010E949E0501971816190684F464
:10097000082E04C0EE0CFF1C001F111F0A94D2F7B2
:10098000ED82FE820F831887C81AD90ADC82CB82D7
:10099000BA82CE0101960E94ED052896E9E00C94FA
:1009A000FA1CACE0B0E0E7EDF4E00C94E51C6983E0
:1009B0007A838B839C83CE010196BE016B5F7F4F50
:1009C0000E94C2068D81823061F1823050F1843004
:1009D00021F48E81882351F12EC02F81388537FD77
:1009E00020C06E812F3131051CF06623F9F023C041
:1009F0008EE190E0821B930B29853A854B855C85BF
:100A000004C056954795379527958A95D2F7662362
:100A1000B1F050954095309521953F4F4F4F5F4F26
:100A20000EC020E030E040E050E009C02FEF3FEF83
:100A30004FEF5FE704C020E030E040E050E8B9014C
:100A4000CA012C96E2E00C94011DA8E0B0E0EBE2B4
:100A5000F5E00C94DD1C7B018C01611571058105AD
:100A6000910519F482E0898360C083E089838EE177
:100A7000C82ED12CDC82CB82ED82FE820F831887B8
:100A8000C801B7010E949E05FC013197F7FF3BC0EA
:100A9000222733272E1B3F0B57016801022E04C06B
:100AA000D694C794B794A7940A94D2F740E050E044
:100AB00060E070E081E090E0A0E0B0E004C0880F6A
:100AC000991FAA1FBB1F2A95D2F70197A109B10947
:100AD0008E219F21A023B1230097A105B10521F00C
:100AE00041E050E060E070E04A295B296C297D29F3
:100AF0004D835E836F8378878EE190E08E1B9F0B22
:100B00009C838B8312C0309781F00E2E04C0EE0CB4
:100B1000FF1C001F111F0A94D2F7ED82FE820F8383
:100B20001887CE1ADF0ADC82CB821A82CE010196A8
:100B30000E94ED052896EAE00C94F91CEF92FF92D2
:100B40000F931F937B018C0180E0E81680E0F8068C
:100B500081E0080780E0180788F48FEFE816F104B9
:100B60000105110531F028F088E090E0A0E0B0E048
:100B700017C080E090E0A0E0B0E012C080E0E8168E
:100B800080E0F80680E0080781E0180728F088E197
:100B900090E0A0E0B0E004C080E190E0A0E0B0E030
:100BA00020E230E040E050E0281B390B4A0B5B0BA1
:100BB00004C016950795F794E7948A95D2F7F70144
:100BC000E05EFE4F8081281B310941095109C901AE
:100BD0001F910F91FF90EF900895DF92EF92FF9297
:100BE0000F931F93FC01E480F58006811781D1806B
:100BF0008081823048F480E090E0A0E1B0E0E82A13
:100C0000F92A0A2B1B2BA5C0843009F49FC082301F
:100C100021F4EE24FF24870105C0E114F10401054D
:100C2000110519F4E0E0F0E096C0628173819FEF56
:100C3000623879070CF05BC022E83FEF261B370BC8
:100C40002A3131052CF020E030E040E050E02AC0AD
:100C5000B801A701022E04C0769567955795479570
:100C60000A94D2F781E090E0A0E0B0E004C0880FE1
:100C7000991FAA1FBB1F2A95D2F70197A109B10995
:100C80008E219F21A023B1230097A105B10521F05A
:100C900081E090E0A0E0B0E09A01AB01282B392B75
:100CA0004A2B5B2BDA01C9018F779070A070B0706E
:100CB00080349105A105B10539F427FF09C0205CF6
:100CC0003F4F4F4F5F4F04C0215C3F4F4F4F5F4F2F
:100CD000E0E0F0E02030A0E03A07A0E04A07A0E41E
:100CE0005A0710F0E1E0F0E079018A0127C060388E
:100CF000710564F5FB01E158FF4FD801C7018F77FB
:100D00009070A070B07080349105A105B10539F4E0
:100D1000E7FE0DC080E490E0A0E0B0E004C08FE307
:100D200090E0A0E0B0E0E80EF91E0A1F1B1F17FFBD
:100D300005C016950795F794E794319687E01695C8
:100D40000795F794E7948A95D1F705C0EE24FF2420
:100D50008701EFEFF0E06E2F679566276795902F7C
:100D60009F77D794DD24D7948E2F8695492F462BD5
:100D7000582F5D29B701CA011F910F91FF90EF9085
:100D8000DF900895FC01DB01408151812281622FB7
:100D90006F7770E0221F2227221F9381892F880FEF
:100DA000822B282F30E0991F9927991F11969C9329
:100DB000119721153105A9F54115510561057105F9
:100DC00011F482E037C082E89FEF13969C938E93D4
:100DD00012979A01AB0167E0220F331F441F551F82
:100DE0006A95D1F783E08C930DC0220F331F441F07
:100DF000551F12968D919C911397019713969C9372
:100E00008E931297203080E0380780E0480780E416
:100E1000580758F314962D933D934D935C93179771
:100E200008952F3F310579F441155105610571058C
:100E300019F484E08C93089564FF03C081E08C93DF
:100E400012C01C9210C02F57304013963C932E9323
:100E5000129783E08C9387E0440F551F661F771F1E
:100E60008A95D1F7706414964D935D936D937C933E
:100E7000179708951F93DC01FB019C91923008F4B1
:100E800047C08081823008F443C0943051F41196F9
:100E90001C91843099F58181682F70E0611B710984
:100EA0003FC0843021F0923031F48230B9F1818139
:100EB000882389F12DC011961C9111978230F1F091
:100EC00081811817D9F412962D913C911397828144
:100ED00093818217930794F028173907BCF0149672
:100EE0008D919D910D90BC91A02D248135814681DD
:100EF0005781281739074A075B0718F4112341F077
:100F00000AC082179307A407B50740F4112319F00C
:100F100061E070E005C06FEF7FEF02C060E070E05D
:100F2000CB011F910895DF93CF93CDB7DEB7A7E232
:100F3000B0E0E7E2F0E080818F778C93A7E2B0E049
:100F4000E7E2F0E0808180648C93A7E2B0E0E7E222
:100F5000F0E080818F7D8C93A6E2B0E0E6E2F0E0E5
:100F6000808181608C93A6E2B0E0E6E2F0E08081CF
:100F700082608C93A6E2B0E0E6E2F0E080818460DB
:100F80008C93A6E2B0E0E6E2F0E080818F7D8C9366
:100F9000A6E2B0E0E6E2F0E0808180688C93CF9139
:100FA000DF910895DF93CF9300D00F92CDB7DEB7D6
:100FB0008B83A7E2B0E0E7E2F0E08081807E8C9353
:100FC000A7E2B0E0E7E2F0E090818B81892B8C937F
:100FD000A6E2B0E0E6E2F0E0808180648C93E6E295
:100FE000F0E0808182958F70882F90E08170907002
:100FF0000097A9F3A6E2B0E0E6E2F0E0808180612C
:101000008C93E4E2F0E08081882F90E09A838983DA
:10101000E5E2F0E08081882F90E0982F88279C01FE
:1010200089819A81822B932B9A83898389819A81E2
:101030000F900F900F90CF91DF910895DF93CF9392
:1010400000D00F92CDB7DEB789837B836A8380910E
:101050002802882319F58A819B810097F9F0A7E27D
:10106000B0E0E7E2F0E090818981892B8C9381E008
:10107000809328028A819B81909327028093260285
:10108000A6E2B0E0E6E2F0E0808180648C93A6E224
:10109000B0E0E6E2F0E0808188608C930F900F90E2
:1010A0000F90CF91DF9108951F920F920FB60F927C
:1010B00000905B000F9211242F933F934F935F9307
:1010C0006F937F938F939F93AF93BF93EF93FF9310
:1010D000DF93CF93CDB7DEB78091260290912702A0
:1010E000009771F010922802A6E2B0E0E6E2F0E08C
:1010F0008081877F8C93E0912602F09127020995E9
:10110000CF91DF91FF91EF91BF91AF919F918F911F
:101110007F916F915F914F913F912F910F9000922E
:101120005B000F900FBE0F901F901895DF93CF9329
:10113000CDB7DEB7E4E2F0E080819181CF91DF911D
:101140000895DF93CF9300D00F92CDB7DEB78B8396
:101150008B810E94D2079A83898389819A810F901B
:101160000F900F90CF91DF910895DF93CF9300D030
:1011700000D00F92CDB7DEB78D838D810E94D2074C
:101180009A83898389819A81CC01A0E0B0E028E824
:1011900033E140E050E0BC01CD010E94801CDC0145
:1011A000CB01072E7AE0B695A795979587957A9506
:1011B000D1F7702D9C838B838B819C810F900F9036
:1011C0000F900F900F90CF91DF910895DF93CF9301
:1011D00000D000D000D0CDB7DEB78B836C838B817D
:1011E0008695869586958A838B81877089838A8187
:1011F000282F30E03E832D836D817E816330710521
:1012000009F496C08D819E818430910594F4ED811E
:10121000FE81E130F10509F443C02D813E81223089
:1012200031050CF061C06D817E8161157105A1F001
:1012300012C18D819E818530910509F4C1C0ED8177
:10124000FE81E530F1050CF497C02D813E812630FA
:10125000310509F4DDC0FFC0A9E3B0E0E9E3F0E047
:101260008181482F8981282F30E081E090E002C001
:10127000880F991F2A95E2F7809548238C81282FA3
:1012800030E08981882F90E0B90102C0660F771F96
:101290008A95E2F7CB01842B11968C931197DBC0D2
:1012A000A6E3B0E0E6E3F0E08181482F8981282FB2
:1012B00030E081E090E002C0880F991F2A95E2F7A4
:1012C000809548238C81282F30E08981882F90E0F9
:1012D000F90102C0EE0FFF1F8A95E2F7CF01842BC0
:1012E00011968C931197B7C0A3E3B0E0E3E3F0E06D
:1012F0008181482F8981282F30E081E090E002C071
:10130000880F991F2A95E2F7809548238C81282F12
:1013100030E08981882F90E0B90102C0660F771F05
:101320008A95E2F7CB01842B11968C93119793C089
:10133000A0E3B0E0E0E3F0E08181482F8981282F2D
:1013400030E081E090E002C0880F991F2A95E2F713
:10135000809548238C81282F30E08981882F90E068
:10136000F90102C0EE0FFF1F8A95E2F7CF01842B2F
:1013700011968C9311976FC0A1E2B0E0E1E2F0E02A
:101380008181482F8981282F30E081E090E002C0E0
:10139000880F991F2A95E2F7809548238C81282F82
:1013A00030E08981882F90E0B90102C0660F771F75
:1013B0008A95E2F7CB01842B11968C9311974BC041
:1013C00040E250E080E290E0FC01EF5BFF4F808163
:1013D000682F8981282F30E081E090E002C0880FDB
:1013E000991F2A95E2F7809568238C81282F30E099
:1013F0008981882F90E0F90102C0EE0FFF1F8A95C6
:10140000E2F7CF01862BFA01EF5BFF4F808323C009
:10141000A3E6B0E0E3E6F0E08181482F8981282F40
:1014200030E081E090E002C0880F991F2A95E2F732
:10143000809548238C81282F30E08981882F90E087
:10144000B90102C0660F771F8A95E2F7CB01842BA2
:1014500011968C93119726960FB6F894DEBF0FBEA7
:10146000CDBFCF91DF910895DF93CF9300D000D00F
:1014700000D0CDB7DEB78B836C838B818695869544
:1014800086958A838B81877089838A81282F30E0B3
:101490003E832D836D817E816330710509F496C092
:1014A0008D819E818430910594F4ED81FE81E1303F
:1014B000F10509F443C02D813E81223031050CF045
:1014C00061C06D817E8161157105A1F012C18D81B0
:1014D0009E818530910509F4C1C0ED81FE81E53022
:1014E000F1050CF497C02D813E812630310509F4B9
:1014F000DDC0FFC0A9E3B0E0E9E3F0E08281482F5E
:101500008981282F30E081E090E002C0880F991F88
:101510002A95E2F7809548238C81282F30E0898135
:10152000882F90E0B90102C0660F771F8A95E2F715
:10153000CB01842B12968C931297DBC0A6E3B0E00C
:10154000E6E3F0E08281482F8981282F30E081E0B6
:1015500090E002C0880F991F2A95E2F780954823F2
:101560008C81282F30E08981882F90E0F90102C01A
:10157000EE0FFF1F8A95E2F7CF01842B12968C9312
:101580001297B7C0A3E3B0E0E3E3F0E08281482F15
:101590008981282F30E081E090E002C0880F991FF8
:1015A0002A95E2F7809548238C81282F30E08981A5
:1015B000882F90E0B90102C0660F771F8A95E2F785
:1015C000CB01842B12968C93129793C0A0E3B0E0CA
:1015D000E0E3F0E08281482F8981282F30E081E02C
:1015E00090E002C0880F991F2A95E2F78095482362
:1015F0008C81282F30E08981882F90E0F90102C08A
:10160000EE0FFF1F8A95E2F7CF01842B12968C9381
:1016100012976FC0A1E2B0E0E1E2F0E08281482FD2
:101620008981282F30E081E090E002C0880F991F67
:101630002A95E2F7809548238C81282F30E0898114
:10164000882F90E0B90102C0660F771F8A95E2F7F4
:10165000CB01842B12968C9312974BC040E250E042
:1016600080E290E0FC01EE5BFF4F8081682F898172
:10167000282F30E081E090E002C0880F991F2A9562
:10168000E2F7809568238C81282F30E08981882FAC
:1016900090E0F90102C0EE0FFF1F8A95E2F7CF013B
:1016A000862BFA01EE5BFF4F808323C0A3E6B0E0F8
:1016B000E3E6F0E08281482F8981282F30E081E045
:1016C00090E002C0880F991F2A95E2F78095482381
:1016D0008C81282F30E08981882F90E0B90102C0E9
:1016E000660F771F8A95E2F7CB01842B12968C93B5
:1016F000129726960FB6F894DEBF0FBECDBFCF91DE
:10170000DF910895DF93CF9300D000D000D0CDB704
:10171000DEB78C831B828C818695869586958A831D
:101720008C81877089838A81282F30E03E832D83C6
:101730004D815E814330510509F45EC08D819E81EB
:101740008430910584F42D813E812130310581F171
:101750004D815E81423051050CF03CC08D819E81EF
:101760000097A1F090C02D813E812530310509F40C
:1017700067C04D815E81453051050CF44FC08D81AD
:101780009E818630910509F46DC07DC0E9E3F0E0EB
:101790008081282F30E08981882F90E0A90102C044
:1017A000559547958A95E2F7CA0181708B836BC086
:1017B000E6E3F0E08081282F30E08981882F90E0F7
:1017C000A90102C0559547958A95E2F7CA01817033
:1017D0008B8359C0E3E3F0E08081282F30E08981DA
:1017E000882F90E0A90102C0559547958A95E2F7A8
:1017F000CA0181708B8347C0E0E3F0E08081282F2D
:1018000030E08981882F90E0A90102C05595479565
:101810008A95E2F7CA0181708B8335C0E1E2F0E07E
:101820008081282F30E08981882F90E0A90102C0B3
:10183000559547958A95E2F7CA0181708B8323C03D
:10184000E0E2F0E08081282F30E08981882F90E06D
:10185000A90102C0559547958A95E2F7CA018170A2
:101860008B8311C0E3E6F0E08081282F30E089818E
:10187000882F90E0A90102C0559547958A95E2F717
:10188000CA0181708B838B8126960FB6F894DEBFD8
:101890000FBECDBFCF91DF910895DF93CF9300D0DE
:1018A00000D00F92CDB7DEB78B838B81869586955E
:1018B00086958A838B81877089838A81282F30E07F
:1018C0003D832C838C819D818330910509F467C011
:1018D0002C813D812430310584F48C819D818130BF
:1018E000910599F12C813D81223031050CF042C0E7
:1018F0008C819D810097A1F0A9C02C813D8125306C
:10190000310509F476C08C819D81853091050CF4F8
:101910005BC02C813D812630310509F483C096C01F
:10192000A9E3B0E0E9E3F0E042818981282F30E0CB
:1019300081E090E0022E02C0880F991F0A94E2F71E
:10194000842712968C93129781C0A6E3B0E0E6E359
:10195000F0E042818981282F30E081E090E0022E82
:1019600002C0880F991F0A94E2F7842712968C937D
:1019700012976CC0A3E3B0E0E3E3F0E04281898119
:10198000282F30E081E090E0022E02C0880F991FDE
:101990000A94E2F7842712968C93129757C0A0E31B
:1019A000B0E0E0E3F0E042818981282F30E081E07F
:1019B00090E0022E02C0880F991F0A94E2F7842754
:1019C00012968C93129742C0A1E2B0E0E1E2F0E0FF
:1019D00042818981282F30E081E090E0022E02C010
:1019E000880F991F0A94E2F7842712968C93129716
:1019F0002DC040E250E080E290E0FC01EE5BFF4F42
:101A000060818981282F30E081E090E0022E02C0C1
:101A1000880F991F0A94E2F78627FA01EE5BFF4FC1
:101A2000808314C0A3E6B0E0E3E6F0E04281898160
:101A3000282F30E081E090E0022E02C0880F991F2D
:101A40000A94E2F7842712968C9312970F900F90C6
:101A50000F900F900F90CF91DF910895DF93CF9368
:101A6000CDB7DEB727970FB6F894DEBF0FBECDBF58
:101A70008A836B8319828B81282F30E03F832E83EA
:101A80008E819F81009731F02E813F812130310579
:101A900019F005C0198204C08FEF898301C0198233
:101AA0008A81282F30E03D832C838C819D81833077
:101AB000910599F12C813D81243031057CF48C8194
:101AC0009D8181309105F9F02C813D8122303105D5
:101AD000FCF48C819D81009789F035C02C813D817B
:101AE0002530310521F18C819D8185309105D4F01F
:101AF0002C813D812630310511F125C0E9E3F0E06C
:101B00008981818320C0E6E3F0E0898181831BC065
:101B1000E3E3F0E08981818316C0E0E3F0E08981AE
:101B2000818311C0E1E2F0E0898181830CC080E211
:101B300090E0FC01EF5BFF4F8981808304C0E3E606
:101B4000F0E08981818327960FB6F894DEBF0FBE3F
:101B5000CDBFCF91DF910895DF93CF93CDB7DEB79F
:101B600027970FB6F894DEBF0FBECDBF8A836B8375
:101B700019828B81282F30E03F832E838E819F81B5
:101B8000009731F02E813F812130310519F005C0D9
:101B9000198204C08FEF898301C019828A81282F9E
:101BA00030E03D832C838C819D818330910599F1B8
:101BB0002C813D81243031057CF48C819D818130E4
:101BC0009105F9F02C813D8122303105FCF48C81A6
:101BD0009D81009789F035C02C813D8125303105EC
:101BE00021F18C819D8185309105D4F02C813D813E
:101BF0002630310511F125C0E9E3F0E089818283C7
:101C000020C0E6E3F0E0898182831BC0E3E3F0E0DB
:101C10008981828316C0E0E3F0E08981828311C06C
:101C2000E1E2F0E0898182830CC080E290E0FC0177
:101C3000EE5BFF4F8981808304C0E3E6F0E0898199
:101C4000828327960FB6F894DEBF0FBECDBFCF912B
:101C5000DF910895DF93CF93CDB7DEB76C970FB6C2
:101C6000F894DEBF0FBECDBF82E061E00E94E608BF
:101C700083E061E00E94E60884E061E00E94E608FB
:101C800085E061E00E94E60880E061E00E94E608ED
:101C900081E061E00E94E6088BE061E00E94E608D6
:101CA00081E061E00E94340A80E090E0A0EAB1E4C3
:101CB000898F9A8FAB8FBC8F698D7A8D8B8D9C8D20
:101CC00020E030E04AE755E40E943D02DC01CB0110
:101CD0008D8B9E8BAF8BB88F6D897E898F89988D08
:101CE00020E030E040E85FE30E94430488232CF4C6
:101CF00081E090E09C8B8B8B3FC06D897E898F89C2
:101D0000988D20E03FEF4FE757E40E94E303181659
:101D10004CF5698D7A8D8B8D9C8D20E030E040E212
:101D200051E40E943D02DC01CB01BC01CD010E94C7
:101D30006700DC01CB019C8B8B8B0FC080E991E0AD
:101D40009A8B898B89899A890197F1F79A8B898B6C
:101D50008B899C8901979C8B8B8B8B899C890097A5
:101D600069F714C06D897E898F89988D0E946700FC
:101D7000DC01CB019C8B8B8B8B899C89988B8F870B
:101D80008F8598890197F1F7988B8F8782E00E9461
:101D9000291088E20E9429108CE00E94291086E018
:101DA0000E94291081E00E94291080E090E0A0E0CC
:101DB000B0E48B879C87AD87BE876B857C858D85DE
:101DC0009E8520E030E04AE755E40E943D02DC01B8
:101DD000CB018F839887A987BA876F81788589859A
:101DE0009A8520E030E040E85FE30E9443048823C6
:101DF0002CF481E090E09E838D833FC06F817885D5
:101E000089859A8520E03FEF4FE757E40E94E3037E
:101E100018164CF56B857C858D859E8520E030E01D
:101E200040E251E40E943D02DC01CB01BC01CD0146
:101E30000E946700DC01CB019E838D830FC080E987
:101E400091E09C838B838B819C810197F1F79C832C
:101E50008B838D819E8101979E838D838D819E8151
:101E6000009769F714C06F81788589859A850E94EB
:101E70006700DC01CB019E838D838D819E819A83D7
:101E8000898389819A810197F1F79A8389836C9676
:101E90000FB6F894DEBF0FBECDBFCF91DF9108958E
:101EA000DF93CF93CDB7DEB768970FB6F894DEBF58
:101EB0000FBECDBF81E060E00E94340A80E090E078
:101EC000A0E8BFE38D8B9E8BAF8BB88F6D897E8929
:101ED0008F89988D2BEA3AEA4AEA50E40E943D0243
:101EE000DC01CB01898B9A8BAB8BBC8B69897A899E
:101EF0008B899C8920E030E040E85FE30E94430446
:101F000088231CF481E0888B91C069897A898B8948
:101F10009C8920E030E04FE753E40E94E303181669
:101F20000CF07BC06D897E898F89988D20E030E030
:101F30004AE754E40E943703DC01CB018C879D877C
:101F4000AE87BF876C857D858E859F8520E030E0DC
:101F50004AE755E40E943D02DC01CB01888799875E
:101F6000AA87BB87688579858A859B8520E030E0D4
:101F700040E85FE30E94430488232CF481E090E072
:101F80009F838E833FC0688579858A859B8520E005
:101F90003FEF4FE757E40E94E30318164CF56C85BA
:101FA0007D858E859F8520E030E040E251E40E94EF
:101FB0003D02DC01CB01BC01CD010E946700DC01C8
:101FC000CB019F838E830FC080E991E09D838C833A
:101FD0008C819D810197F1F79D838C838E819F81F8
:101FE00001979F838E838E819F81009769F724C01C
:101FF000688579858A859B850E946700DC01CB0115
:102000009F838E838E819F819B838A838A819B811C
:102010000197F1F79B838A830FC069897A898B893D
:102020009C890E946700DC01CB01888B88898983A9
:1020300089818A95F1F7898381E061E00E94340A01
:1020400068960FB6F894DEBF0FBECDBFCF91DF917B
:102050000895DF93CF93CDB7DEB7A7970FB6F89467
:10206000DEBF0FBECDBF8FA380E060E00E94340AC8
:10207000209121028FA182958F70982F9170822FCD
:10208000692F0E94340A209122028FA182958695A1
:102090008770982F9170822F692F0E94340A2091A7
:1020A00023028FA18295869586958370982F9170D3
:1020B000822F692F0E94340A209124028FA1982F29
:1020C000991F9927991F822F692F0E94340A0E9415
:1020D000500F80E090E0A8E4B3E48BA39CA3ADA3F1
:1020E000BEA36BA17CA18DA19EA12BEA3AEA4AEA8C
:1020F00050E40E943D02DC01CB018F8F98A3A9A37D
:10210000BAA36F8D78A189A19AA120E030E040E8C0
:102110005FE30E94430488231CF481E08E8F91C00A
:102120006F8D78A189A19AA120E030E04FE753E4B8
:102130000E94E30318160CF07BC06BA17CA18DA15B
:102140009EA120E030E04AE754E40E943703DC011E
:10215000CB018A8F9B8FAC8FBD8F6A8D7B8D8C8DD1
:102160009D8D20E030E04AE755E40E943D02DC010D
:10217000CB018E8B9F8BA88FB98F6E897F89888DBD
:10218000998D20E030E040E85FE30E94430488231B
:102190002CF481E090E09D8B8C8B3FC06E897F8911
:1021A000888D998D20E03FEF4FE757E40E94E303CD
:1021B00018164CF56A8D7B8D8C8D9D8D20E030E05E
:1021C00040E251E40E943D02DC01CB01BC01CD01A3
:1021D0000E946700DC01CB019D8B8C8B0FC080E9D6
:1021E00091E09B8B8A8B8A899B890197F1F79B8B66
:1021F0008A8B8C899D8901979D8B8C8B8C899D897D
:10220000009769F724C06E897F89888D998D0E9417
:102210006700DC01CB019D8B8C8B8C899D89998B10
:10222000888B888999890197F1F7998B888B0FC0E2
:102230006F8D78A189A19AA10E946700DC01CB0172
:102240008E8F8E8D8F878F858A95F1F78F8720915E
:1022500021028FA1982F9170822F692F0E94340A3A
:10226000209122028FA18695982F9170822F692F3D
:102270000E94340A209123028FA186958695982F7B
:102280009170822F692F0E94340A209124028FA11D
:10229000869586958695982F9170822F692F0E943A
:1022A000340A0E94500F80E090E0A0E0B0E48B87F9
:1022B0009C87AD87BE876B857C858D859E8520E05C
:1022C00030E04AE755E40E943D02DC01CB018F83F8
:1022D0009887A987BA876F81788589859A8520E054
:1022E00030E040E85FE30E94430488232CF481E05F
:1022F00090E09E838D833FC06F81788589859A8524
:1023000020E03FEF4FE757E40E94E30318164CF537
:102310006B857C858D859E8520E030E040E251E430
:102320000E943D02DC01CB01BC01CD010E9467008F
:10233000DC01CB019E838D830FC080E991E09C83FB
:102340008B838B819C810197F1F79C838B838D819B
:102350009E8101979E838D838D819E81009769F771
:1023600014C06F81788589859A850E946700DC0199
:10237000CB019E838D838D819E819A838983898100
:102380009A810197F1F79A838983A7960FB6F894FB
:10239000DEBF0FBECDBFCF91DF910895DF93CF9306
:1023A000CDB7DEB7A7970FB6F894DEBF0FBECDBF8F
:1023B0008FA380E061E00E94340A209121028FA166
:1023C0008595859585958595982F9170822F692F94
:1023D0000E94340A209122028FA1859585958595CA
:1023E00085958595982F9170822F692F0E94340AC8
:1023F000209123028FA186FB880F880B80F9982FEC
:102400009170822F692F0E94340A209124028FA19B
:10241000982F991F9927991F822F692F0E94340A9C
:102420000E94500F80E090E0A8E4B3E48BA39CA34B
:10243000ADA3BEA36BA17CA18DA19EA12BEA3AEA1C
:102440004AEA50E40E943D02DC01CB018F8F98A341
:10245000A9A3BAA36F8D78A189A19AA120E030E049
:1024600040E85FE30E94430488231CF481E08E8FE0
:1024700091C06F8D78A189A19AA120E030E04FE74B
:1024800053E40E94E30318160CF07BC06BA17CA1FF
:102490008DA19EA120E030E04AE754E40E9437037A
:1024A000DC01CB018A8F9B8FAC8FBD8F6A8D7B8DBA
:1024B0008C8D9D8D20E030E04AE755E40E943D027E
:1024C000DC01CB018E8B9F8BA88FB98F6E897F89A2
:1024D000888D998D20E030E040E85FE30E9443045E
:1024E00088232CF481E090E09D8B8C8B3FC06E891B
:1024F0007F89888D998D20E03FEF4FE757E40E9458
:10250000E30318164CF56A8D7B8D8C8D9D8D20E034
:1025100030E040E251E40E943D02DC01CB01BC010D
:10252000CD010E946700DC01CB019D8B8C8B0FC01D
:1025300080E991E09B8B8A8B8A899B890197F1F7CF
:102540009B8B8A8B8C899D8901979D8B8C8B8C8929
:102550009D89009769F724C06E897F89888D998D40
:102560000E946700DC01CB019D8B8C8B8C899D893F
:10257000998B888B888999890197F1F7998B888B3A
:102580000FC06F8D78A189A19AA10E946700DC011C
:10259000CB018E8F8E8D8F878F858A95F1F78F87F0
:1025A000209121028FA1982F9170822F692F0E9474
:1025B000340A209122028FA18595982F9170822F45
:1025C000692F0E94340A209123028FA18595859559
:1025D000982F9170822F692F0E94340A2091240233
:1025E0008FA1859585958595982F9170822F692F5C
:1025F0000E94340A0E94500F80E090E0A0E0B0E416
:102600008B879C87AD87BE876B857C858D859E85F6
:1026100020E030E04AE755E40E943D02DC01CB01B6
:102620008F839887A987BA876F81788589859A85EE
:1026300020E030E040E85FE30E94430488232CF46C
:1026400081E090E09E838D833FC06F81788589858E
:102650009A8520E03FEF4FE757E40E94E303181606
:102660004CF56B857C858D859E8520E030E040E2D1
:1026700051E40E943D02DC01CB01BC01CD010E946E
:102680006700DC01CB019E838D830FC080E991E060
:102690009C838B838B819C810197F1F79C838B8337
:1026A0008D819E8101979E838D838D819E81009770
:1026B00069F714C06F81788589859A850E946700C3
:1026C000DC01CB019E838D838D819E819A838983DA
:1026D00089819A810197F1F79A838983A7960FB62A
:1026E000F894DEBF0FBECDBFCF91DF910895DF9389
:1026F000CF9300D00F92CDB7DEB79B838A83198228
:102700000EC08981282F30E08A819B81FC01E20F75
:10271000F31F80810E94CE1189818F5F8983898117
:10272000282F30E08A819B81FC01E20FF31F80811A
:10273000882339F70F900F900F90CF91DF91089574
:10274000DF93CF9300D000D0CDB7DEB789836A8303
:102750008A81882F90E000968431910598F58981CF
:10276000282F30E03C832B838B819C818230910524
:10277000D9F02B813C812330310534F48B819C814D
:102780008130910561F01EC02B813C8123303105E1
:1027900081F08B819C818430910581F013C08A8106
:1027A00080680E9429100EC08A81806C0E942910C6
:1027B00009C08A8184690E94291004C08A81846DBD
:1027C0000E9429100F900F900F900F90CF91DF91E2
:1027D0000895DF93CF93CDB7DEB760970FB6F89427
:1027E000DEBF0FBECDBF6D877E878F87988BCE01F2
:1027F00001962DB73EB7285030400FB6F8943EBF33
:102800000FBE2DBFEDB7FEB731969183808380E078
:1028100091E0938382838D859E85AF85B88984837B
:102820009583A683B7830E940C1D8DB79EB708962B
:102830000FB6F8949EBF0FBE8DBFCE0101960E94C9
:10284000771360960FB6F894DEBF0FBECDBFCF9161
:10285000DF910895DF93CF93CDB7DEB781E00E947B
:102860002910CF91DF910895DF93CF93CDB7DEB7D5
:102870008DE061E00E94E6080E946E1682E390E01F
:102880000E943517CF91DF910895DF93CF930F9278
:10289000CDB7DEB789838981882F90E00096853B8C
:1028A000910538F58981882F90E0AA2797FDA0959A
:1028B000BA2FBC01CD010E947304DC01CB01BC0125
:1028C000CD0125EA3FE44AE75DE30E943D02DC01D9
:1028D000CB01BC01CD0120E030E040E050E40E949B
:1028E0001002DC01CB01BC01CD010E94E9160E945F
:1028F0009F160F90CF91DF910895DF93CF93CDB7BF
:10290000DEB72E970FB6F894DEBF0FBECDBF80E0C6
:1029100090E0A8ECB3E48B879C87AD87BE876B857E
:102920007C858D859E8520E030E04AE755E40E9455
:102930003D02DC01CB018F839887A987BA876F811D
:10294000788589859A8520E030E040E85FE30E9441
:10295000430488232CF481E090E09E838D833FC064
:102960006F81788589859A8520E03FEF4FE757E4AE
:102970000E94E30318164CF56B857C858D859E853A
:1029800020E030E040E251E40E943D02DC01CB0156
:10299000BC01CD010E946700DC01CB019E838D83C9
:1029A0000FC080E991E09C838B838B819C81019790
:1029B000F1F79C838B838D819E8101979E838D830C
:1029C0008D819E81009769F714C06F817885898514
:1029D0009A850E946700DC01CB019E838D838D81E7
:1029E0009E819A83898389819A810197F1F79A83DD
:1029F00089830E94BB162E960FB6F894DEBF0FBED9
:102A0000CDBFCF91DF910895DF93CF93CDB7DEB7E0
:102A1000A3E5B0E0E3E5F0E0808180648C93A3E57A
:102A2000B0E0E3E5F0E0808188608C93A3E5B0E05E
:102A3000E3E5F0E0808180628C93A3E5B0E0E3E51C
:102A4000F0E080818F7E8C93CF91DF910895DF93AA
:102A5000CF93CDB7DEB7A3E5B0E0E3E5F0E080814A
:102A600081608C93A3E5B0E0E3E5F0E080818260D3
:102A70008C93A3E5B0E0E3E5F0E080818B7F8C935D
:102A8000CF91DF910895DF93CF93CDB7DEB7A3E564
:102A9000B0E0E3E5F0E080818E7F8C93A3E5B0E0C9
:102AA000E3E5F0E080818D7F8C93A3E5B0E0E3E582
:102AB000F0E080818B7F8C93CF91DF910895DF933D
:102AC000CF9300D0CDB7DEB79A83898389819A816D
:102AD000009731F089819A8190932A02809329028C
:102AE0000F900F90CF91DF910895DF93CF9300D097
:102AF000CDB7DEB79A83898389819A81009731F0B7
:102B000089819A8190932C0280932B020F900F90D1
:102B1000CF91DF910895DF93CF930F92CDB7DEB7BA
:102B20008983E1E5F0E0898180830F90CF91DF9187
:102B30000895DF93CF9300D0CDB7DEB79A83898312
:102B4000E1E5F0E089EF808389819A8190932E02FC
:102B500080932D020F900F90CF91DF910895DF9316
:102B6000CF930F92CDB7DEB789838981853678F40C
:102B7000E1E5F0E08981882F90E0982F882724E60E
:102B800030E0B9010E949F1CCB01815080830F90DF
:102B9000CF91DF9108951F920F920FB60F92009080
:102BA0005B000F9211242F933F934F935F936F938A
:102BB0007F938F939F93AF93BF93EF93FF93DF9395
:102BC000CF93CDB7DEB780912F029091300201965E
:102BD0009093300280932F0280912F0290913002C7
:102BE00023E0813D920799F4E2E5F0E081E78083FC
:102BF0001092300210922F028091290290912A02A5
:102C0000009729F0E0912902F0912A020995CF91CD
:102C1000DF91FF91EF91BF91AF919F918F917F9144
:102C20006F915F914F913F912F910F9000925B00B8
:102C30000F900FBE0F901F9018951F920F920FB616
:102C40000F9200905B000F9211242F933F934F93AC
:102C50005F936F937F938F939F93AF93BF93EF9304
:102C6000FF93DF93CF93CDB7DEB780913102909180
:102C700032020196909332028093310220912D020C
:102C800030912E028091310290913202281739073B
:102C900079F4109232021092310280912B029091BD
:102CA0002C02009729F0E0912B02F0912C0209955B
:102CB000CF91DF91FF91EF91BF91AF919F918F9154
:102CC0007F916F915F914F913F912F910F90009263
:102CD0005B000F900FBE0F901F901895DF93CF935E
:102CE000CDB7DEB7AFE4B0E0EFE4F0E080818E7FF7
:102CF0008C93AFE4B0E0EFE4F0E0808182608C93ED
:102D0000AEE4B0E0EEE4F0E0808188608C93AEE465
:102D1000B0E0EEE4F0E0808180618C93AFE4B0E05D
:102D2000EFE4F0E080818F7B8C93AFE4B0E0EFE4E0
:102D3000F0E0808180688C93CF91DF910895DF93DC
:102D4000CF93CDB7DEB7AEE4B0E0EEE4F0E0808143
:102D500081608C93AEE4B0E0EEE4F0E080818260CC
:102D60008C93AEE4B0E0EEE4F0E080818B7F8C9356
:102D7000CF91DF910895DF93CF93CDB7DEB7AEE467
:102D8000B0E0EEE4F0E080818E7F8C93AEE4B0E0C2
:102D9000EEE4F0E080818D7F8C93AEE4B0E0EEE471
:102DA000F0E080818B7F8C93CF91DF910895DF934A
:102DB000CF9300D0CDB7DEB79A838983EAE4F0E001
:102DC00089819A81918380830F900F90CF91DF91B9
:102DD00008950F931F93DF93CF9300D000D0CDB70A
:102DE000DEB769837A838B839C830AE410E0E6E490
:102DF000F0E0808191810196CC01A0E0B0E0BC01BF
:102E0000CD010E942505DC01CB01BC01CD0129814A
:102E10003A814B815C810E943D02DC01CB01BC0107
:102E2000CD0120E030E048EC52E40E943703DC01A1
:102E3000CB01BC01CD0120E030E040E85FE30E941F
:102E4000DF01DC01CB01BC01CD010E946700DC0188
:102E5000CB01F801918380830F900F900F900F901A
:102E6000CF91DF911F910F9108950F931F93DF93DF
:102E7000CF9300D0CDB7DEB79A83898306E410E004
:102E800089819A819C0140E050E080E990EDA3E0C7
:102E9000B0E0BC01CD010E94B31CDA01C901019769
:102EA000F801918380830F900F90CF91DF911F9154
:102EB0000F910895DF93CF93CDB7DEB7AAE2B0E0CC
:102EC000EAE2F0E0808188618C93E9E2F0E087E655
:102ED0008083A5E9B0E0E5E9F0E0808180628C9331
:102EE000A5E9B0E0E5E9F0E0808180618C93A5E997
:102EF000B0E0E5E9F0E08081877F8C93A5E9B0E060
:102F0000E5E9F0E0808182608C93A5E9B0E0E5E935
:102F1000F0E0808184608C93CF91DF910895DF93FE
:102F2000CF930F92CDB7DEB78983EBE2F0E08081DB
:102F3000829586958770882F90E0817090700097B9
:102F4000A1F3ECE2F0E0898180830F90CF91DF91D3
:102F50000895DF93CF93CDB7DEB7EBE2F0E0808149
:102F60008823DCF7ECE2F0E08081CF91DF910895D7
:102F70001F920F920FB60F9200905B000F921124D8
:102F80002F933F934F935F936F937F938F939F9371
:102F9000AF93BF93EF93FF93DF93CF93CDB7DEB79C
:102FA000E0913802F09139020995CF91DF91FF91BC
:102FB000EF91BF91AF919F918F917F916F915F91B1
:102FC0004F913F912F910F9000925B000F900FBE99
:102FD0000F901F901895DF93CF9300D000D00F92E1
:102FE000CDB7DEB789837B836A83EBE8F0E010829C
:102FF000EAE8F0E01082ECE7F0E01082EDE7F0E0C4
:103000001082E0E8F0E011821082E8E8F0E011823E
:103010001082A2E2B0E0E2E2F0E080818F778C9350
:103020008981813041F4AAE8B0E0EAE8F0E08081EB
:1030300080648C9307C0AAE8B0E0EAE8F0E0808101
:103040008F7B8C93AAE8B0E0EAE8F0E08081887F8B
:103050008C93E8E8F0E011821082E0E8F0E0118261
:103060001082ADE7B0E0EDE7F0E0808180628C9304
:10307000ACE7B0E0ECE7F0E0808180628C93AFE5F4
:10308000B0E0EFE5F0E0808180688C938A819B81DD
:103090009D838C838C819D818034910501F18C818D
:1030A0009D818134910530F48C819D81883091051A
:1030B00071F02DC08C819D8121E080309207B9F0A4
:1030C0008C819D8124E080309207C9F020C0AAE85D
:1030D000B0E0EAE8F0E0808182608C931FC0AAE84B
:1030E000B0E0EAE8F0E0808183608C9317C0AAE842
:1030F000B0E0EAE8F0E0808184608C930FC0AAE839
:10310000B0E0EAE8F0E0808185608C9307C0AAE82F
:10311000B0E0EAE8F0E0808181608C930F900F903E
:103120000F900F900F90CF91DF910895DF93CF9381
:1031300000D0CDB7DEB79A83898389819A81909335
:103140003902809338020F900F90CF91DF9108954C
:10315000DF93CF930F92CDB7DEB78983898181301A
:1031600041F4AAE8B0E0EAE8F0E0808180648C9362
:1031700007C0AAE8B0E0EAE8F0E080818F7B8C939A
:103180000F90CF91DF910895DF93CF93CDB7DEB746
:10319000E0E8F0E080819181CF91DF910895DF93A5
:1031A000CF93CDB7DEB7E8E8F0E011821082CF917F
:1031B000DF910895DF93CF93CDB7DEB7EBE8F0E072
:1031C0001082EAE8F0E01082E8E8F0E01182108274
:1031D000E0E8F0E011821082ADE7B0E0EDE7F0E06A
:1031E00080818F7D8C93CF91DF910895DF93CF9372
:1031F000CDB7DEB72E970FB6F894DEBF0FBECDBFAA
:103200000E94C0190E947B1980E090E0A6E9B3E417
:103210008B879C87AD87BE876B857C858D859E85DA
:1032200020E030E04AE755E40E943D02DC01CB019A
:103230008F839887A987BA876F81788589859A85D2
:1032400020E030E040E85FE30E94430488232CF450
:1032500081E090E09E838D833FC06F817885898572
:103260009A8520E03FEF4FE757E40E94E3031816EA
:103270004CF56B857C858D859E8520E030E040E2B5
:1032800051E40E943D02DC01CB01BC01CD010E9452
:103290006700DC01CB019E838D830FC080E991E044
:1032A0009C838B838B819C810197F1F79C838B831B
:1032B0008D819E8101979E838D838D819E81009754
:1032C00069F714C06F81788589859A850E946700A7
:1032D000DC01CB019E838D838D819E819A838983BE
:1032E00089819A810197F1F79A8389830E94AE19A7
:1032F0000E94E61987CFDF93CF93CDB7DEB70E9448
:10330000041C8531910568F40E942A1481E062E072
:103310000E94A01384E091E00E9477130E94981904
:1033200004C00E942A140E94A319CF91DF9108952E
:10333000DF93CF93CDB7DEB784E261E00E94340A19
:10334000CF91DF910895DF93CF93CDB7DEB784E2BD
:1033500060E00E94340ACF91DF910895DF93CF930C
:10336000CDB7DEB780E00E94A10827E030E0B901C8
:103370000E949F1CCB010E94AF15CF91DF91089551
:10338000DF93CF93CDB7DEB70E943A1A0E942A0E80
:1033900084E261E00E94E60884E260E00E94340A70
:1033A0000E9493070E94041580E00E94AF150E94BE
:1033B00027158CE061E00E94E6088BE161E00E9445
:1033C000E6080E943414CF91DF910895DF93CF93E4
:1033D000CDB7DEB70E94421C909334028093330233
:1033E00080913302909134028A30910520F480E07C
:1033F0000E94451419C080913302909134028A30A2
:10340000910578F0809133029091340282339105D6
:1034100040F48091330290913402885D0E944514FB
:1034200003C08AE50E944514CF91DF910895DF9390
:10343000CF93CDB7DEB7809135028F5F8093350291
:1034400080913502813031F40E94CF1880E00E94D3
:10345000A8180DC080913502823049F40E94C4182A
:10346000909337028093360281E00E94A818CF9192
:10347000DF910895DF93CF93CDB7DEB781E068E0A9
:1034800070E00E94EB1787E19AE10E94961880E2B3
:1034900061E00E94E6088FE161E00E94E608CF91BA
:1034A000DF910895DF93CF93CDB7DEB768970FB65E
:1034B000F894DEBF0FBECDBF80E261E00E94340A07
:1034C00080E090E0A0E7B1E48D8B9E8BAF8BB88F4E
:1034D0006D897E898F89988D2BEA3AEA4AEA50E411
:1034E0000E943D02DC01CB01898B9A8BAB8BBC8B9C
:1034F00069897A898B899C8920E030E040E85FE324
:103500000E94430488231CF481E0888B91C0698960
:103510007A898B899C8920E030E04FE753E40E9450
:10352000E30318160CF07BC06D897E898F89988D16
:1035300020E030E04AE754E40E943703DC01CB018D
:103540008C879D87AE87BF876C857D858E859F859F
:1035500020E030E04AE755E40E943D02DC01CB0167
:1035600088879987AA87BB87688579858A859B859F
:1035700020E030E040E85FE30E94430488232CF41D
:1035800081E090E09F838E833FC0688579858A853E
:103590009B8520E03FEF4FE757E40E94E3031816B6
:1035A0004CF56C857D858E859F8520E030E040E27E
:1035B00051E40E943D02DC01CB01BC01CD010E941F
:1035C0006700DC01CB019F838E830FC080E991E00F
:1035D0009D838C838C819D810197F1F79D838C83E2
:1035E0008E819F8101979F838E838E819F8100971B
:1035F00069F724C0688579858A859B850E94670064
:10360000DC01CB019F838E838E819F819B838A8384
:103610008A819B810197F1F79B838A830FC0698917
:103620007A898B899C890E946700DC01CB01888B99
:103630008889898389818A95F1F7898380E260E0AE
:103640000E94340A68960FB6F894DEBF0FBECDBF55
:10365000CF91DF910895DF93CF93CDB7DEB7689711
:103660000FB6F894DEBF0FBECDBF8FE161E00E94C0
:10367000340A80E090E0A0E7B1E48D8B9E8BAF8BA5
:10368000B88F6D897E898F89988D2BEA3AEA4AEA4C
:1036900050E40E943D02DC01CB01898B9A8BAB8BFD
:1036A000BC8B69897A898B899C8920E030E040E86D
:1036B0005FE30E94430488231CF481E0888B91C05F
:1036C00069897A898B899C8920E030E04FE753E44F
:1036D0000E94E30318160CF07BC06D897E898F89E8
:1036E000988D20E030E04AE754E40E943703DC0183
:1036F000CB018C879D87AE87BF876C857D858E8546
:103700009F8520E030E04AE755E40E943D02DC015D
:10371000CB0188879987AA87BB87688579858A8541
:103720009B8520E030E040E85FE30E94430488236B
:103730002CF481E090E09F838E833FC0688579857B
:103740008A859B8520E03FEF4FE757E40E94E30323
:1037500018164CF56C857D858E859F8520E030E0C0
:1037600040E251E40E943D02DC01CB01BC01CD01ED
:103770000E946700DC01CB019F838E830FC080E92C
:1037800091E09D838C838C819D810197F1F79D83CE
:103790008C838E819F8101979F838E838E819F81F1
:1037A000009769F724C0688579858A859B850E9482
:1037B0006700DC01CB019F838E838E819F819B8379
:1037C0008A838A819B810197F1F79B838A830FC04B
:1037D00069897A898B899C890E946700DC01CB0109
:1037E000888B8889898389818A95F1F789838FE11C
:1037F00060E00E94340A68960FB6F894DEBF0FBEF0
:10380000CDBFCF91DF910895DF93CF9300D0CDB797
:10381000DEB71092350210923702109236020E94E3
:10382000CF180E94521A809135028230E1F78091C0
:103830003602909137022AE330E0B9010E949F1CC2
:10384000CB01019623E08232920728F084EF91E0C9
:103850009A83898310C080913602909137022AE3BF
:1038600030E0B9010E949F1CCB0101969C01369566
:1038700027953A83298389819A810F900F90CF9160
:10388000DF910895DF93CF9300D0CDB7DEB71092CC
:10389000350210923702109236020E94CF180E9411
:1038A0002B1B809135028230E1F780913602909196
:1038B00037022AE330E0B9010E949F1CCB01019638
:1038C00023E08232920728F084EF91E09A83898383
:1038D00010C080913602909137022AE330E0B9019E
:1038E0000E949F1CCB0101969C01369527953A8337
:1038F000298389819A810F900F90CF91DF9108954C
:10390000629FD001739FF001829FE00DF11D649FC3
:10391000E00DF11D929FF00D839FF00D749FF00D4F
:10392000659FF00D9927729FB00DE11DF91F639FF0
:10393000B00DE11DF91FBD01CF0111240895AA1B8F
:10394000BB1B51E107C0AA1FBB1FA617B70710F08A
:10395000A61BB70B881F991F5A95A9F780959095BC
:10396000BC01CD010895A1E21A2EAA1BBB1BFD01CB
:103970000DC0AA1FBB1FEE1FFF1FA217B307E4074E
:10398000F50720F0A21BB30BE40BF50B661F771FA6
:10399000881F991F1A9469F7609570958095909586
:1039A0009B01AC01BD01CF0108952F923F924F9230
:1039B0005F926F927F928F929F92AF92BF92CF92BF
:1039C000DF92EF92FF920F931F93CF93DF93CDB7C8
:1039D000DEB7CA1BDB0B0FB6F894DEBF0FBECDBF40
:1039E00009942A88398848885F846E847D848C8411
:1039F0009B84AA84B984C884DF80EE80FD800C811A
:103A00001B81AA81B981CE0FD11D0FB6F894DEBFFC
:103A10000FBECDBFED0108950F931F93DF93CF939A
:103A2000CDB7DEB72E970FB6F894DEBF0FBECDBF71
:103A30000D891E8986E08C831A8309838FEF9FE7A7
:103A40009E838D839E01275E3F4FCE0101966F8935
:103A5000788DA9010E943D1D2F813885020F131F0B
:103A6000F80110822E960FB6F894DEBF0FBECDBFC0
:103A7000CF91DF911F910F9108952F923F924F9216
:103A80005F926F927F928F929F92AF92BF92CF92EE
:103A9000DF92EF92FF920F931F93DF93CF93CDB7F7
:103AA000DEB72B970FB6F894DEBF0FBECDBF3C013B
:103AB0002B015A01FC0117821682838181FD03C00C
:103AC0006FEF7FEFC6C19AE0892E1E010894211C7A
:103AD000311CF3012381F20123FD859123FF8191A4
:103AE0002F01882309F4B2C1853239F423FD859171
:103AF00023FF81912F01853229F490E0B3010E94C8
:103B0000591FE7CF982FFF24EE249924FFE1FF15DA
:103B1000D0F09B3269F09C3228F4903259F0933205
:103B200091F40EC09D3249F0903369F441E024C015
:103B300052E0F52A84E0F82A28C098E0F92A25C046
:103B4000E0E1FE2A22C0F7FC29C0892F80538A3089
:103B500070F4F6FE05C0989C902C1124980E15C0A8
:103B6000E89CE02C1124E80EF0E2FF2A0EC09E3201
:103B700029F4F6FC6BC140E4F42A07C09C3619F422
:103B800050E8F52A02C0983649F4F20123FD9591D8
:103B900023FF91912F01992309F0B8CF892F8554E4
:103BA000833018F08052833038F444E050E0A40EA3
:103BB000B51E5FE359830FC0933631F0933779F028
:103BC000933509F056C020C0F5018081898342E019
:103BD00050E0A40EB51E610101E010E012C0F50135
:103BE000C080D180F6FC03C06FEF7FEF02C0692D6B
:103BF00070E042E050E0A40EB51EC6010E944E1FC8
:103C00008C015FE7F52214C0F501C080D180F6FC7D
:103C100003C06FEF7FEF02C0692D70E042E050E01B
:103C2000A40EB51EC6010E94431F8C0150E8F52A60
:103C3000F3FE07C01AC080E290E0B3010E94591F52
:103C4000EA948E2D90E008171907A8F30EC0F6012C
:103C5000F7FC8591F7FE81916F0190E0B3010E941E
:103C6000591FE110EA94015010400115110579F730
:103C7000EAC0943611F0993669F5F7FE08C0F501EF
:103C8000208131814281538184E090E00AC0F501B6
:103C9000808191819C01442737FD4095542F82E01B
:103CA00090E0A80EB91E9FE6F92257FF09C0509573
:103CB0004095309521953F4F4F4F5F4FE0E8FE2AEA
:103CC000CA01B901A1012AE030E00E94851FD82E67
:103CD000D21840C0953729F41F2D1F7E2AE030E00E
:103CE0001DC01F2D197F9F3661F0903720F4983545
:103CF00009F0ACC00FC0903739F0983709F0A6C072
:103D000004C028E030E00AC0106114FD146020E116
:103D100030E004C014FD166020E132E017FF08C057
:103D2000F501608171818281938144E050E008C097
:103D3000F50180819181BC0180E090E042E050E09B
:103D4000A40EB51EA1010E94851FD82ED2188FE7A0
:103D5000F82EF122F6FE0BC05EEFF522D91438F4EE
:103D6000F4FE07C0F2FC05C08FEEF82202C01D2D44
:103D700001C0192DF4FE0DC0FE01ED0DF11D808175
:103D8000803319F499EEF92208C01F5FF2FE05C0D6
:103D900003C08F2D867809F01F5F0F2DF3FC14C030
:103DA000F0FE0FC01E1510F09D2C0BC09D2C9E0C1C
:103DB000911A1E2D06C080E290E0B3010E94591FA7
:103DC0001F5F1E15C0F304C01E1510F4E11A01C0D8
:103DD000EE2404FF0FC080E390E0B3010E94591F5E
:103DE00002FF1DC001FD03C088E790E00EC088E51A
:103DF00090E00BC0802F867891F001FF02C08BE22B
:103E000001C080E2F7FC8DE290E0B3010E94591FEF
:103E100006C080E390E0B3010E94591F9A94D91420
:103E2000C0F3DA94F101ED0DF11D808190E0B30152
:103E30000E94591FDD20A9F706C080E290E0B3017F
:103E40000E94591FEA94EE20C1F743CEF301668128
:103E50007781CB012B960FB6F894DEBF0FBECDBF96
:103E6000CF91DF911F910F91FF90EF90DF90CF9056
:103E7000BF90AF909F908F907F906F905F904F908A
:103E80003F902F900895FC01059061507040011003
:103E9000D8F7809590958E0F9F1F0895FC01615073
:103EA000704001900110D8F7809590958E0F9F1F5C
:103EB00008950F931F93CF93DF938C01EB018B81B8
:103EC00081FF1BC082FF0DC02E813F818C819D81AF
:103ED0002817390764F4E881F9810193F983E883AD
:103EE00006C0E885F985802F0995892B31F48E81EC
:103EF0009F8101969F838E8302C00FEF1FEFC80141
:103F0000DF91CF911F910F910895FA01AA272830D0
:103F100051F1203181F1E8946F936E7F6E5F7F4F96
:103F20008F4F9F4FAF4FB1E03ED0B4E03CD0670F12
:103F3000781F891F9A1FA11D680F791F8A1F911D65
:103F4000A11D6A0F711D811D911DA11D20D009F4B5
:103F500068943F912AE0269F11243019305D3193F7
:103F6000DEF6CF010895462F4770405D4193B3E0E0
:103F70000FD0C9F7F6CF462F4F70405D4A3318F087
:103F8000495D31FD4052419302D0A9F7EACFB4E038
:103F9000A6959795879577956795BA95C9F70097F0
:103FA0006105710508959B01AC010A2E0694579591
:103FB000479537952795BA95C9F7620F731F841FE8
:0A3FC000951FA01D0895F894FFCF8F
:103FCA00256C7500616E206F626A65637420646592
:103FDA00746563746564000000000000000000005E
:103FEA000001020203030303040404040404040496
:103FFA000505050505050505050505050505050567
:10400A000606060606060606060606060606060646
:10401A000606060606060606060606060606060636
:10402A000707070707070707070707070707070716
:10403A000707070707070707070707070707070706
:10404A0007070707070707070707070707070707F6
:10405A0007070707070707070707070707070707E6
:10406A0008080808080808080808080808080808C6
:10407A0008080808080808080808080808080808B6
:10408A0008080808080808080808080808080808A6
:10409A000808080808080808080808080808080896
:1040AA000808080808080808080808080808080886
:1040BA000808080808080808080808080808080876
:1040CA000808080808080808080808080808080866
:1040DA000808080808080808080808080808080856
:0640EA00010203040500C1
:00000001FF
