:020000040800F2
:100000000028002055120008A5120008A5120008BB
:10001000A5120008A5120008A512000800000000A3
:10002000000000000000000000000000A512000811
:10003000A512000800000000A5120008A90E000883
:10004000A5120008A5120008A5120008A5120008B4
:10005000A5120008A5120008A5120008A5120008A4
:10006000A5120008A5120008A5120008A512000894
:10007000A5120008A5120008A5120008A512000884
:10008000A5120008A5120008A5120008A512000874
:10009000A5120008A5120008A5120008A512000864
:1000A000A5120008A5120008A5120008A512000854
:1000B000A5120008A5120008A5120008A512000844
:1000C000A5120008A5120008A5120008A512000834
:1000D000A51200083911000865110008A5120008D2
:1000E000A5120008A512000800000000A5120008D3
:1000F000A5120008A5120008A5120008A512000804
:10010000A5120008A5120008A5120008A5120008F3
:10011000A5120008A5120008A5120008A5120008E3
:10012000A5120008A5120008A5120008A5120008D3
:1001300010B5054C237833B9044B13B10448AFF321
:1001400000800123237010BD0C000020000000007F
:10015000F012000808B5034B1BB103490348AFF385
:10016000008008BD0000000010000020F012000810
:1001700080B483B000AF0346FB710B46BB711346DE
:100180007B71BB79072B52D8FB79022B37D0022B1E
:1001900000F3A980002B02D0012B18D0A3E0544B10
:1001A0001B68BA799200032101FA02F2D243114688
:1001B0004F4A0B4013604E4B1B687979BA79920015
:1001C00001FA02F211464A4A0B4313608BE0494B95
:1001D0001B68BA799200032101FA02F2D243114658
:1001E000444A0B401360434B1B687979BA799200FB
:1001F00001FA02F211463F4A0B43136073E03E4B93
:100200001B68BA799200032101FA02F2D243114627
:10021000394A0B401360384B1B687979BA799200E0
:1002200001FA02F21146344A0B4313605BE0BB79DA
:10023000072B57D9BB790F2B54D8BB79083BBB711F
:10024000FB79022B36D0022B4DDC002B02D0012B88
:1002500018D048E0264B5B68BA799200032101FA76
:1002600002F2D2431146224A0B405360204B5B6896
:100270007979BA79920001FA02F211461C4A0B43CD
:10028000536030E01B4B5B68BA799200032101FA9E
:1002900002F2D2431146174A0B405360154B5B687C
:1002A0007979BA79920001FA02F21146114A0B43A8
:1002B000536018E0104B5B68BA799200032101FA91
:1002C00002F2D24311460C4A0B4053600A4B5B6862
:1002D0007979BA79920001FA02F21146064A0B4383
:1002E000536000E000BF00BF0C37BD4680BC7047C4
:1002F00000080140000C01400010014080B483B0B0
:1003000000AF0346FB710B46BB7113467B71BB7993
:10031000072B58D8FB79022B3BD0022B00F3B5807A
:10032000002B02D0012B1AD0AFE05A4B1B68BA79D0
:1003300092000232032101FA02F2D2431146554AD9
:100340000B401360534B1B687979BA7992000232E3
:1003500001FA02F211464F4A0B43136095E04E4BEF
:100360001B68BA7992000232032101FA02F2D243E9
:100370001146494A0B401360474B1B687979BA799B
:100380009200023201FA02F21146434A0B43136013
:100390007BE0424B1B68BA7992000232032101FADA
:1003A00002F2D24311463D4A0B4013603B4B1B689F
:1003B0007979BA799200023201FA02F21146374A8B
:1003C0000B43136061E0BB79072B5DD9BB790F2B21
:1003D0005AD8BB79083BBB71FB79022B3AD0022B70
:1003E00053DC002B02D0012B1AD04EE0294B5B6866
:1003F000BA7992000232032101FA02F2D243114685
:10040000244A0B405360234B5B687979BA79920098
:10041000023201FA02F211461E4A0B43536034E0E5
:100420001D4B5B68BA7992000232032101FA02F295
:10043000D2431146184A0B405360174B5B687979D9
:10044000BA799200023201FA02F21146124A0B43C3
:1004500053601AE0114B5B68BA79920002320321B3
:1004600001FA02F2D24311460C4A0B4053600B4B87
:100470005B687979BA799200023201FA02F2114688
:10048000064A0B43536000E000BF00BF0C37BD4677
:1004900080BC704700080140000C01400010014082
:1004A00080B483B000AF0346FB710B46BB711346AB
:1004B0007B717B79012B2AD1FB79022B1CD0022B7B
:1004C00053DC002B02D0012B0BD04EE0294BDB6814
:1004D000BA79012101FA02F21146264A0B43D36090
:1004E00043E0254BDB68BA79012101FA02F211469B
:1004F000214A0B43D36038E0204BDB68BA790121F5
:1005000001FA02F211461D4A0B43D3602DE0FB793C
:10051000022B1ED0022B28DC002B02D0012B0CD08A
:1005200023E0144BDB68BA79012101FA02F2D243CD
:100530001146104A0B40D36017E00F4BDB68BA79C5
:10054000012101FA02F2D24311460B4A0B40D3605B
:100550000BE00A4BDB68BA79012101FA02F2D243BF
:100560001146064A0B40D36000BF00BF0C37BD46A2
:1005700080BC704700080140000C014000100140A1
:1005800090B583B000AF0446084611461A4623468C
:10059000FB710346BB710B467B7113463B713B7984
:1005A000022B0CD0B979FB7901221846FFF778FFAE
:1005B0007979FB7900221846FFF772FF0CE0B979D0
:1005C000FB7900221846FFF76BFF7979FB7901224E
:1005D0001846FFF765FF00BF00BF0C37BD4690BD52
:1005E00080B582B000AF0346FB71FB79022B09D0C6
:1005F000032B0FD0012240F2CF714FF4FA6000F0CC
:1006000091FC0FE001224FF47A714FF4FA6000F090
:1006100089FC07E001224FF4FA714FF4FA6000F010
:1006200081FC00BF00BF0837BD4680BD80B582B0E9
:1006300000AF0346FB80FB88012219464FF4FA60A5
:1006400000F070FC00BF0837BD4680BD80B483B0A9
:1006500000AF0346FB71FB791F2B0AD80F4B1B68B9
:10066000FA79012101FA02F211460C4A0B43136098
:100670000FE0FB793B2B0CD8FB79203BFB71084B3F
:100680001B68FA79012101FA02F21146044A0B4370
:10069000136000BF0C37BD4680BC704700E100E02E
:1006A00004E100E080B582B000AF0023FB7167E396
:1006B000FA79C24913465B0013440B441B78022BA2
:1006C00000F03C82022B00F35883002B03D0012B57
:1006D00000F01A8151E30221032000F07FFBFA7938
:1006E000B64913465B0013440B4402331B78082BB6
:1006F00000F23E8301A252F823F000BF2107000858
:10070000570700088D070008C3070008F90700080D
:100710002F080008650800089B080008D108000899
:10072000FA79A64913465B0013440B4401331B7846
:10073000012219460020FFF71BFDFA799F49134655
:100740005B0013440B4401331B7800221946002040
:10075000FFF7D4FDD7E0FA79984913465B001344BC
:100760000B4401331B78022219460020FFF700FDDD
:10077000FA79924913465B0013440B4401331B780A
:10078000002219460020FFF7B9FDBCE0FA798B4939
:1007900013465B0013440B4401331B7803221946B4
:1007A0000020FFF7E5FCFA79844913465B00134407
:1007B0000B4401331B78002219460020FFF79EFDF1
:1007C000A1E0FA797D4913465B0013440B440133E1
:1007D0001B78012219460020FFF7CAFCFA797749F5
:1007E00013465B0013440B4401331B780122194666
:1007F0000020FFF783FD86E0FA79704913465B001D
:1008000013440B4401331B78022219460020FFF7E2
:10081000AFFCFA79694913465B0013440B4401337A
:100820001B78012219460020FFF768FD6BE0FA797A
:10083000624913465B0013440B4401331B780322C7
:1008400019460020FFF794FCFA795C4913465B00D7
:1008500013440B4401331B78012219460020FFF793
:100860004DFD50E0FA79554913465B0013440B44A3
:1008700001331B78002219460020FFF779FCFA7932
:100880004E4913465B0013440B4401331B7800228E
:1008900019460020FFF732FD35E0FA794749134643
:1008A0005B0013440B4401331B78002219460020DF
:1008B000FFF75EFCFA79414913465B0013440B4491
:1008C00001331B78012219460020FFF717FD1AE0BB
:1008D000FA793A4913465B0013440B4401331B7801
:1008E000002219460020FFF743FCFA7933491346EA
:1008F0005B0013440B4401331B780222194600208D
:10090000FFF7FCFC00BF33E20321032000F066FA8E
:10091000FA792A4913465B0013440B4402331B78CF
:10092000082B00F2278201A252F823F05109000897
:1009300087090008C1090008F70900082D0A000806
:10094000630A0008990A0008CF0A0008050B00088E
:10095000FA791A4913465B0013440B4401331B78A0
:10096000012219460120FFF703FCFA7913491346C7
:100970005B0013440B4401331B780022194601200D
:10098000FFF7BCFCD9E0FA790C4913465B0013442D
:100990000B4401331B78022219460120FFF7E8FBC4
:1009A000FA79064913465B0013440B4401331B7864
:1009B000002219460120FFF7A1FCBEE00000002044
:1009C000FA79C14913465B0013440B4401331B7889
:1009D000032219460120FFF7CBFBFA79BA491346E7
:1009E0005B0013440B4401331B780022194601209D
:1009F000FFF784FCA1E0FA79B34913465B00134486
:100A00000B4401331B78012219460120FFF7B0FB8C
:100A1000FA79AD4913465B0013440B4401331B784C
:100A2000012219460120FFF769FC86E0FA79A64900
:100A300013465B0013440B4401331B780222194612
:100A40000120FFF795FBFA799F4913465B00134499
:100A50000B4401331B78012219460120FFF74EFC9D
:100A60006BE0FA79984913465B0013440B44013359
:100A70001B78032219460120FFF77AFBFA79924985
:100A800013465B0013440B4401331B7801221946C3
:100A90000120FFF733FC50E0FA798B4913465B00E5
:100AA00013440B4401331B78002219460120FFF741
:100AB0005FFBFA79844913465B0013440B4401330E
:100AC0001B78002219460120FFF718FC35E0FA795F
:100AD0007D4913465B0013440B4401331B7800220D
:100AE00019460120FFF744FBFA79774913465B006A
:100AF00013440B4401331B78012219460120FFF7F0
:100B0000FDFB1AE0FA79704913465B0013440B446D
:100B100001331B78002219460120FFF729FBFA79DF
:100B2000694913465B0013440B4401331B780222CE
:100B300019460120FFF7E2FB00BF1BE1042103205F
:100B400000F04CF9FA79604913465B0013440B44FA
:100B500002331B78082B00F20F8101A252F823F018
:100B6000850B0008BB0B0008F10B0008270C0008E0
:100B70005D0C0008930C0008CD0C0008030D000864
:100B8000390D0008FA79504913465B0013440B44B1
:100B900001331B78012219460220FFF7E9FAFA799E
:100BA000494913465B0013440B4401331B78002270
:100BB00019460220FFF7A2FBD9E0FA794249134611
:100BC0005B0013440B4401331B78022219460220B8
:100BD000FFF7CEFAFA793C4913465B0013440B4405
:100BE00001331B78002219460220FFF787FBBEE085
:100BF000FA79354913465B0013440B4401331B78E3
:100C0000032219460220FFF7B3FAFA792E49134658
:100C10005B0013440B4401331B7800221946022069
:100C2000FFF76CFBA3E0FA79274913465B001344F6
:100C30000B4401331B78012219460220FFF798FA72
:100C4000FA79214913465B0013440B4401331B78A6
:100C5000012219460220FFF751FB88E0FA791A4970
:100C600013465B0013440B4401331B7802221946E0
:100C70000220FFF77DFAFA79134913465B0013440B
:100C80000B4401331B78012219460220FFF736FB83
:100C90006DE0FA790C4913465B0013440B440133B1
:100CA0001B78032219460220FFF762FAFA790649F7
:100CB00013465B0013440B4401331B780122194691
:100CC0000220FFF71BFB52E000000020FA793149B7
:100CD00013465B0013440B4401331B780022194672
:100CE0000220FFF745FAFA792A4913465B001344BC
:100CF0000B4401331B78002219460220FFF7FEFA4D
:100D000035E0FA79234913465B0013440B44013361
:100D10001B78002219460220FFF72AFAFA791D49AA
:100D200013465B0013440B4401331B780122194620
:100D30000220FFF7E3FA1AE0FA79164913465B003E
:100D400013440B4401331B78002219460220FFF79D
:100D50000FFAFA790F4913465B0013440B44013331
:100D60001B78022219460220FFF7C8FA00BF03E0F1
:100D700000BF02E000BF00E000BFFB790133FB7160
:100D8000FB79202B7FF694AC00BF00BF0837BD462F
:100D900080BD00BF0000002080B400AF0E4B1B6878
:100DA0000D4A43F00103136000BF0B4B1B685B0847
:100DB00003F00103002BF8D0074B5B68064A23F0D1
:100DC00001035360044B5B68034A23F00203536042
:100DD00000BFBD4680BC70470010024080B483B0A5
:100DE00000AF03460A46FB711346BB71BB791F2B4C
:100DF0002AD8FB79032B1CD0032B26DC012B02D035
:100E0000022B0BD021E0134B5B69BA79012101FA67
:100E100002F211460F4A0B43536116E00D4BDB699A
:100E2000BA79012101FA02F211460A4A0B43D36151
:100E30000BE0084B9B69BA79012101FA02F21146D5
:100E4000044A0B43936100E000BF00BF0C37BD466E
:100E500080BC70470010024080B483B000AF78605F
:100E6000104A7B6853600F4B1B680E4A43F0010326
:100E7000136000BF0B4B1B681B0C03F00103002B1E
:100E8000F8D0084B1B68074A23F001031360054B99
:100E900000225A60034B00229A6000BF0C37BD4607
:100EA00080BC704710E000E080B582B000AF124B0C
:100EB0001B68002B11D1114B1B68104A23F0020351
:100EC00013600E4B1B680D4A23F0010313600B4B9C
:100ED00000225A60094B00229A60094B1B68984710
:100EE000064B1B681B0CDBB203F00103FB7100BF58
:100EF0000837BD4680BD00BF2C00002010E000E098
:100F00002800002080B582B000AF78607B684FF485
:100F10007A7202FB03F31846FFF79EFF00BF083703
:100F2000BD4680BD80B584B000AFF860B96013469F
:100F3000FB71334B1A6AFB79013B9B0022FA03F3E6
:100F400003F00103002B4FD10B210320FFF746FFD5
:100F500000210320FFF742FF02210320FFF73EFF9D
:100F6000FB790733DBB2032219460020FFF700F9B3
:100F7000FB790733DBB2022219460020FFF7BEF9E6
:100F80001F4B07229A621E4B9B691D4A43F0700358
:100F900093611B4B1B6AFA79013A920001320121DD
:100FA00001FA02F21146164A0B431362144B1B6AF4
:100FB000FA79013A9200012101FA02F21146104A2F
:100FC0000B4313620E4B5B6C0D4A43F400435364B6
:100FD0000B4B1B680A4A43F001031360084B1B6864
:100FE000074A23F008031360054AFB68013BD362FC
:100FF000034ABB68536300BF1037BD4680BD00BFC6
:10100000002C014080B500AF0E210320FFF7E6FE63
:1010100002210320FFF7E2FE00210320FFF7DEFE9E
:10102000032209210020FFF7A3F802220921002052
:10103000FFF764F900220A210020FFF799F8022245
:101040000A210020FFF75AF92C4BDB682B4A23F4C6
:101050000053D360294B00221A60284BDB68274AD3
:1010600023F48053D360254B1B69244A23F4805317
:101070001361224B1B69214A23F4005313611F4B58
:10108000DB681E4A43F00803D3601C4BDB681B4A35
:1010900043F00403D360194B40F241329A6025209B
:1010A000FFF7D4FA154BDB68144A43F02003D360F2
:1010B000124B1B69114A23F4006313610F4B1B6928
:1010C0000E4A23F4804313610C4B5B690B4A23F0F7
:1010D00020035361094B5B69084A23F008035361FD
:1010E000064B5B69054A23F002035361034BDB683F
:1010F000024A43F40053D36000BF80BD0038014072
:1011000080B483B000AF03463960FB71FB79012BDB
:1011100003D1074A3B68136005E0FB79022B02D13B
:10112000044A3B68136000BF0C37BD4680BC704763
:10113000300000203400002080B500AF074B1B6852
:10114000002B09D0064B00221A60044B1B68044A8E
:101150005268D2B21046984700BF80BD30000020D0
:101160000038014080B500AF074B1B68002B09D049
:10117000064B00221A60044B1B68044A5268D2B224
:101180001046984700BF80BD340000200044004056
:1011900080B582B000AF0346FB71124B1B781A4634
:1011A0000D210220FFF77CF90E4B1B7883F0010321
:1011B000DAB20C4B1A70FB79472B02D0FB79672B04
:1011C00003D1094B01221A7008E0FB79482B02D0A9
:1011D000FB79682B02D10120FFF702FA00BF083724
:1011E000BD4680BD390000203800002080B582B0A7
:1011F00000AFFFF7D1FDFFF755FAFFF703FF1349E3
:101200000120FFF77DFF0123012200210020FFF7CD
:10121000B7F90120FFF7E4F90D4B1B78012BFBD147
:1012200040F2CF73FB8009E0FB881846FFF7FEF918
:101230000120FFF767FEFB88013BFB80FB88002B4A
:10124000F2D1034B00221A70E6E700BF91110008AB
:10125000380000200D488546AFF300800C480D494A
:101260000D4A002302E0D458C4500433C4188C4201
:10127000F9D30A4A0A4C002301E013600432A24267
:10128000FBD300F011F8FFF7B1FFFEE700280020C4
:10129000000000200C000020101300080C000020AB
:1012A0003C000020FEE7000070B500260C4D0D4C00
:1012B000641BA410A64209D100F01AF800260A4DBA
:1012C0000A4C641BA410A64205D170BD55F8043B1E
:1012D00098470136EEE755F8043B98470136F2E7A8
:1012E0000813000808130008081300080C1300086E
:1012F000F8B500BFF8BC08BC9E467047F8B500BF03
:08130000F8BC08BC9E467047D2
:041308005501000883
:04130C0031010008A3
:0C131000020D02000008000108FFFFFFB2
:040000050800125588
:00000001FF
