S00B00004143432E7372656352
S11300005AC0000077C0000075C0000073C0000033
S113001071C000006FC000006DC000006BC0000024
S113002069C000000C947B0D0C943C0D63C000006F
S113003000C200005FC000000C94BC0C0C94FB0CCC
S113004059C0000057C000000C94050E53C00000B6
S11300500C94D80D4FC000004DC000004BC00000F0
S113006049C000000C94EC0B45C0000043C00000E4
S113007041C000003FC000003DC000003BC0000084
S113008039C0000037C0000035C000004F0A640AC0
S1130090790A8E0AA30AB80ACF0AF60A0B0B200BB8
S11300A0350B4A0B5F0B760B9C0BA70BB20BBD0BEE
S11300B0C80BD30BDE0B11241FBECFEFD0E1DEBF84
S11300C0CDBF11E0A0E0B1E0E0EFFFE100E00BBF45
S11300D002C007900D92A433B107D9F723E0A4E33B
S11300E0B1E001C01D92A03BB207E1F70E94E40910
S11300F00C94F60F85CFCF93DF93EC01D8D3809186
S1130100340190913501892B31F488E391E0909387
S11301103501809334012097C9F080913601909184
S113012037019E01280F391F233F41E0340788F42B
S11301308217930788F4C0913401D0913501C80F18
S1130140D91F309337012093360108C0C0E0D0E0B6
S113015005C0C0E0D0E002C0C0E0D0E0A6D4CE012B
S1130160DF91CF9108950895FC01039692838183D2
S11301702FEF3FEF34832383968385839087878390
S113018010820895FC01118610860895CF93DF93A1
S1130190EB01488159814F3F2FEF520721F4FC01B5
S11301A0A781B0850DC0DC01139601C0DF01129652
S11301B0ED91FC9113972081318142175307B0F7D9
S11301C01296ED91FC911397FB83EA83D583C48344
S11301D0BD83AC831396DC93CE931297998788875B
S11301E0FC0120812F5F2083DF91CF910895CF936D
S11301F0DF93FC01A085B185C281D381848195817F
S11302009D838C83C481D581828193819B838A83DE
S113021011968D919C911297E817F90731F4848116
S1130220958112969C938E931197118610868C91CA
S113023081508C938C91DF91CF9108951BBC89EFF1
S11302408ABD8BE08EBD87B7806187BF089531E199
S1130250FC013083319722E220833197A3E3A0830A
S1130260319760833197708331971082319760E8BA
S1130270608331971082319762E06083319763E045
S11302806083319764E06083319765E060833197E0
S113029066E06083319767E06083319768E060834C
S11302A0319769E06083319760E1608331973083EF
S11302B0319732E13083319733E13083319734E140
S11302C03083319735E13083319736E1308331978C
S11302D037E13083319738E13083319739E1308326
S11302E0319730E23083319731E230833197208384
S11302F0319723E22083319740833197508331979C
S113030026E22083319727E22083319728E2208355
S1130310319729E22083319720E32083319721E329
S11303202083869708958ADFA0918803B09189037A
S1130330CD91CDBFDD91DEBFFF91EF91DF91CF91E4
S1130340BF91AF919F918F917F916F915F914F91E9
S11303503F912F911F910F91FF90EF90DF90CF90DD
S1130360BF90AF909F908F907F906F905F904F90D1
S11303703F902F901F900F900FBE0F90089581E033
S113038008950F920FB6F8940F921F9211242F9292
S11303903F924F925F926F927F928F929F92AF9211
S11303A0BF92CF92DF92EF92FF920F931F932F93FE
S11303B03F934F935F936F937F938F939F93AF93E9
S11303C0BF93CF93DF93EF93FF93A0918803B091F2
S11303D089030DB60D920EB60D9282D4A0918803B6
S11303E0B0918903CD91CDBFDD91DEBFFF91EF9137
S11303F0DF91CF91BF91AF919F918F917F916F9139
S11304005F914F913F912F911F910F91FF90EF902A
S1130410DF90CF90BF90AF909F908F907F906F9020
S11304205F904F903F902F901F900F900FBE0F90B2
S113043008951F920F920FB60F9211240BB60F92CC
S11304402F933F934F935F936F937F938F939F93D8
S1130450AF93BF93EF93FF933AD2FF91EF91BF9184
S1130460AF919F918F917F916F915F914F913F9148
S11304702F910F900BBE0F900FBE0F901F901895E9
S1130480E0915003F09151038081811107C08FEFF7
S11304909FEF9093300380932F030895E0915003CE
S11304A0F09151030580F681E02D80819181909334
S11304B0300380932F030895CF93DF93EC018F894A
S11304C0988D51DECE014FDEDF91CF9108956F926A
S11304D07F928F929F92AF92BF92CF92DF92EF92D0
S11304E00F931F93CF93DF93CDB7DEB74C01F50184
S11304F08789908D215031093C01620E731E61156C
S1130500710589F415C0822F90E0FB01E80FF91FF3
S11305103081D501A80FB91F59963C938081882357
S113052029F02F5F01C020E0283068F3F50110A204
S1130530F3E0FE1520F40F2EF3E0EF2EF02DF5017D
S1130540E68AC50102961EDEC5010C961BDEF50186
S1130550B186A08684E090E08E19910995878487FE
S1130560B38AA28AA801B401C30171DEF5019183A3
S11305708083C114D10419F0F601B182A082DF9105
S1130580CF911F910F91EF90DF90CF90BF90AF90DC
S11305909F908F907F906F900895CF93C0E00FC08D
S11305A08C2F90E09C01220F331F220F331F220F48
S11305B0331F820F931F8C599C4FD6DDCF5FC430FD
S11305C078F38BE593E0D0DD82E593E0CDDD85E43F
S11305D093E0CADD8CE393E0C7DD8BE593E0909371
S11305E051038093500382E593E090934F038093EB
S11305F04E03CF910895CF93DF93EC010FB6F89497
S11306000F9280913A038F5F80933A03809188031D
S113061090918903892B51F4D0938903C093880363
S113062080913A03813091F4B8DF10C08091360391
S113063081110CC0E0918803F091890396898E8919
S1130640891720F0D0938903C093880380913103E4
S11306508F5F809331038E8990913703981710F43C
S11306608093370390E0FC01EE0FFF1FEE0FFF1F96
S1130670EE0FFF1F8E0F9F1FFC01EC59FC4F0180F2
S1130680F281E02DFD83EC83848195819F838E83A9
S1130690A481B581CE01029613969C938E931297F2
S11306A095838483EE89F0E0CF01880F991F880F2A
S11306B0991F880F991FE80FF91FEC59FC4FFB870E
S11306C0EA8780818F5F80830F900FBE809136030D
S11306D0882321F08091880390918903DF91CF9141
S11306E00895CF93DF931AC00FB6F8940F92E09158
S11306F04103F0914203C681D781CE01029677DD92
S113070080913A03815080933A0380913B03815056
S113071080933B030F900FBECE01CEDE80913B034E
S11307208111E2CFDF91CF910895DBDF2ADEFDCF87
S11307300F931F93CF93DF93EC0100913803109133
S113074039038091880390918903029650DDC00F8C
S1130750D11FE0918803F0918903D383C283C0172A
S1130760D10760F4609188037091890380914E03EE
S113077090914F036E5F7F4F09DD16C0609188032F
S11307807091890380915003909151036E5F7F4F64
S1130790FDDC80912F0390913003C817D90720F412
S11307A0D0933003C0932F03DF91CF911F910F910A
S11307B008952F923F924F925F926F927F928F9201
S11307C09F92AF92BF92CF92DF92EF92FF920F93DC
S11307D01F93CF93DF933C011B015A012901CA01E6
S11307E08ADC6C01892B89F086E290E084DCEC01E0
S11307F0892B41F086E2FE0111928A95E9F7D88EA1
S1130800CF8A05C0C601AFDC02C0C0E0D0E02097AB
S113081081F0950140E050E0812C912C5E0167014C
S1130820E02E8201B101C30152DECE01E4DE81E09B
S113083001C08FEFDF91CF911F910F91FF90EF9047
S1130840DF90CF90BF90AF909F908F907F906F90EC
S11308505F904F903F902F900895EF92FF920F93E7
S11308600F2EFDE2EF2EF3E0FF2EF02D00E020E04E
S113087030E045E550E069E071E085E993E099DF17
S1130880813079F4F8948FEF9FEF90933003809345
S11308902F0381E0809336031092390310923803BA
S11308A042DD809100010F91FF90EF9008958091B7
S11308B02C038F5F80932C0308950FB6F8940F9246
S11308C080913803909139030F900FBE08950F93D0
S11308D01F93CF93DF9380912C038111D7C0C091D4
S11308E03803D09139038E010F5F1F4F10933903E2
S11308F00093380301151105B1F4809150039091D0
S1130900510320914E0330914F03309351032093B0
S1130910500390934F0380934E03809132038F5F73
S113092080933203ADDD80912F039091300308173B
S1130930190708F4B4C0E0915003F0915103808189
S1130940811107C08FEF9FEF9093300380932F03A3
S1130950A6C0E0915003F09151030580F681E02D8B
S11309600680F781E02D828193810817190728F406
S11309709093300380932F0392C0A285B385848122
S1130980958126813781EC013D832C838681978173
S113099024813581EC013B832A8311968D919C91AE
S11309A012979F012E5F3F4F8217930731F4868180
S11309B0978112969C938E931197138612868C912D
S11309C081508C93A489B589109711F186859785F8
S11309D040895189EC015D834C83808991894685E6
S11309E05785EC015B834A8311964D915C91129774
S11309F0CF010C964817590731F4808991891296D2
S1130A009C938E931197158A148A8C9181508C93A0
S1130A10868990913703981710F48093370390E0F8
S1130A20DC01AA0FBB1FAA0FBB1FAA0FBB1F8A0F93
S1130A309B1FDC01AC59BC4F11960D90BC91A02DAD
S1130A40B583A48314968D919C911597978386837F
S1130A5014968D919C911597EC013B832A831596EE
S1130A603C932E931497A689B0E0CD01880F991F6B
S1130A70880F991F880F991FA80FB91FAC59BC4F35
S1130A80B387A2878C918F5F8C9355CF8091340369
S1130A90909135030196909335038093340380E05D
S1130AA0DF91CF911F910F910895CF93DF930FB6EC
S1130AB0F8940F9280912C03815080932C038091A1
S1130AC02C038111B7C080913A03811196C0B2C042
S1130AD0E0914A03F0914B030680F781E02DA4894D
S1130AE0B589C685D785808991899D838C83C08982
S1130AF0D189868597859B838A8311962D913C9114
S1130B001297CF010C962817390731F480899189FF
S1130B1012969C938E931197158A148A8C91815006
S1130B208C93A285B385C481D581868197819D8369
S1130B308C83C681D781848195819B838A83119616
S1130B408D919C9112979F012E5F3F4F82179307BF
S1130B5031F48681978112969C938E931197138614
S1130B6012868C9181508C938689909137039817C3
S1130B7010F48093370390E0DC01AA0FBB1FAA0F87
S1130B80BB1FAA0FBB1F8A0F9B1FDC01AC59BC4FB4
S1130B9011960D90BC91A02DB583A48314968D91CC
S1130BA09C911597978386831496CD91DC91159724
S1130BB03B832A8315963C932E931497A689B0E021
S1130BC0CD01880F991F880F991F880F991FA80FAF
S1130BD0B91FAC59BC4FB387A2878C918F5F8C939C
S1130BE09689A0918803B091890356968C919817A1
S1130BF030F081E08093330302C0E0E0F0E08091C4
S1130C004503811165CFEF2B09F03ADCC091340321
S1130C10D0913503209761F05ADE882319F081E0E2
S1130C20809333032197C1F7109235031092340354
S1130C30809133030F900FBE80E0DF91CF91089530
S1130C400F931F93CF93DF938C01EB0130DE409120
S1130C50380350913903F80120813181C9018C0F87
S1130C609D1F4217530740F48217930768F44817EF
S1130C70590760F0C0E00FC08217930748F0481787
S1130C80590740F0C0E007C0C0E005C0C1E003C0A0
S1130C90C1E001C0C1E0F80191838083CC2321F03D
S1130CA060E0841B950B44DD00DF811101C069DB2A
S1130CB08C2FDF91CF911F910F910895CF93DF93E4
S1130CC0EC01892B31F0F3DD60E0CE0131DDEDDEA6
S1130CD001C080E0811101C054DBDF91CF91089500
S1130CE080912C03882321F081E0809333030895BD
S1130CF0109233032091370301C02150822F90E0DA
S1130D00FC01EE0FFF1FEE0FFF1FEE0FFF1FE80F9A
S1130D10F91FEC59FC4F3081332379F3AC01440FB4
S1130D20551F440F551F440F551F480F591FDF010E
S1130D300180F281E02D0280F381E02D1296FC9374
S1130D40EE93119749595C4FE417F50729F4428152
S1130D505381FD0152834183FC01EE0FFF1FEE0F0F
S1130D60FF1FEE0FFF1F8E0F9F1FFC01EC59FC4F5E
S1130D700180F281E02D868197819093890380938D
S1130D808803209337030895CF92DF92EF92FF9266
S1130D901F93CF93DF93162F0FB6F8940F92E09121
S1130DA08803F0918903C82FD0E09E01220F331FDE
S1130DB0220F331FE20FF31FC1A0D2A0E3A0F4A0BF
S1130DC0CD28CE28CF2879F4E0918803F0918903C7
S1130DD0EC0FFD1F81E085A34115510521F061E071
S1130DE0CA01A6DCCEDA0F900FBE0FB6F8940F92AC
S1130DF0E0918803F0918903CE01880F991F880F31
S1130E00991FE80FF91F61A172A183A194A1611533
S1130E1071058105910541F1112381F0E091880369
S1130E20F09189039E01220F331F220F331FE20F1B
S1130E30F31F11A212A213A214A216C0E0918803F8
S1130E40F09189039E01220F331F220F331FE20FFB
S1130E50F31F6B017C0121E0C21AD108E108F108FB
S1130E60C1A2D2A2E3A2F4A2209188033091890303
S1130E70C20FD31F1DA20F900FBEDF91CF911F9100
S1130E80FF90EF90DF90CF9008950F931F93CF932F
S1130E90DF93DC01E62FF0E0EC01CE0FDF1F8DA124
S1130EA092E09DA3EE0FFF1FEE0FFF1FEA0FFB1F43
S1130EB001A112A123A134A10F5F1F4F2F4F3F4F58
S1130EC001A312A323A334A3813009F0A3C080910A
S1130ED02C0381116DC01A96ED91FC911B97149609
S1130EE0CD91DC91159716968D919C9117979D83C2
S1130EF08C831696CD91DC91179714968D919C91C5
S1130F0015979B838A83818192819D012E5F3F4F38
S1130F108217930731F416968D919C9117979283BB
S1130F2081831B961C921E921A9780818150808324
S1130F3056968C91569790913703981710F4809396
S1130F40370390E0FC01EE0FFF1FEE0FFF1FEE0FC3
S1130F50FF1F8E0F9F1FFC01EC59FC4F0180F28193
S1130F60E02D1596FC93EE93149784819581179642
S1130F709C938E931697C481D5813B832A833583B2
S1130F8024835696EC915697F0E0CF01880F991F71
S1130F90880F991F880F991FE80FF91FEC59FC4F10
S1130FA01B96FC93EE931A9780818F5F808320C0F9
S1130FB065E473E0FB01C181D2811F96DC93CE937B
S1130FC01E978C819D8151969C938E9350972C8172
S1130FD03D81CD010C96F901938382839D838C839B
S1130FE055967C936E935497FB0180818F5F808329
S1130FF056969C91E0918803F0918903868989171C
S113100048F44115510519F081E0FA01808381E02B
S113101080933303DF91CF911F910F91089561E085
S113102089E02DD261E08AE02AD261E08CE027D207
S113103083C40895813061F018F0823081F016C0C5
S113104060E089E0C3D260E08AE0C0D27FC4089542
S113105061E089E0BBD260E08AE0B8C2089560E054
S113106089E0B4D261E08AE0B1C2089561E089E028
S1131070ADD261E08AE0AAD269C408956BD461C498
S1131080089568D45EC4089580918D038F5F809322
S11310908D03813021F44BD480E036C4089582302E
S11310A059F440D490938B0380938A0381E0809316
S11310B08C0310928D0328C4089568E070E081E0E9
S11310C0B6D384E498E01BD461E08FE0D8C10895DE
S11310D02ED461E08FE07AC2089560E08FE076C29A
S11310E008950F931F93CF93DF93EC0180918C03AA
S11310F0813081F580918A0390918B03AC0160E08B
S113110070E0DB01CA01880F991FAA1FBB1F880F5B
S1131110991FAA1FBB1F880F991FAA1FBB1F880FE7
S1131120991FAA1FBB1F8C019D01040F151F261FA9
S1131130371FC901B801660F771F881F991F20EA5E
S11311403FE040E050E018D73983288310928C03A5
S113115081E001C080E0DF91CF911F910F9108954C
S11311608091900390919103892B29F08091AC0395
S113117080688093AC030895CF93DF9300D000D0B0
S1131180CDB7DEB79ADB9A8389838091AC0385FD62
S113119008C093DF8091AC0380628F7E8093AC03A0
S11311A005C096DF81E090E089DD97DFCE010396EC
S11311B098DF813059F48B819C8190938F038093C5
S11311C08E038091AC0380648093AC0362E370E08F
S11311D0CE01019635DDD9CFCF93DF9300D0CDB7C3
S11311E0DEB76BDB9A8389838091AC03982F92706E
S11311F081FD1DC080918E0390918F0301974497C8
S113120050F580E017DF10920701109206018091DB
S1131210AC038E7F82608093AC038823E4F487E47C
S1131220B4D48091AC038F778093AC0314C099231A
S113123091F083E172D281110EC08091AC038D7F55
S11312408093AC0388233CF488E49FD48091AC035E
S11312508F778093AC0364E670E0CE010196F0DCF6
S1131260C3CFCF93DF9300D0CDB7DEB726DB9A830D
S113127089838091AC038374813409F060C082E077
S1131280D9DE2091050180918E0390918F03821BFA
S113129091098C010496099710F400E010E0B8015C
S11312A0012E000C880B990B78D520910101309107
S11312B002014091030150910401FBD56B017C01B3
S11312C06091060170910701072E000C880B990BA1
S11312D064D5A7019601CAD42DD5709307016093F4
S11312E006016832710524F4109307010093060186
S11312F080910601909107018536910534F084E6CA
S113130090E090930701809306018091AC038F7B5A
S11313108093AC0380910801282F082E000C330B16
S11313204091060150910701421753071CF4842F82
S1131330A5DE05C030930701209306019FDE68EC0B
S113134070E0CE0101967CDC94CFCF93DF9300D084
S1131350CDB7DEB78DE594E09A83898348EC50E0FD
S113136060E080E011DD613071058105910589F44B
S11313700ED480FF09C09091AC0391609093AC03AC
S113138086958093080105C08091AC038E7F80937D
S1131390AC0364E670E0CE01019652DCDFCFCF935C
S11313A0DF931F92CDB7DEB719828091900390919D
S11313B09103009729F0AE014F5F5F4F60E065DD58
S11313C00F90DF91CF9108958091AC038C79806860
S11313D08093AC0324DE8FEC99E0E3D380EB98E0B8
S11313E0D9D3B6D381E026DE809106014ADE60E0DF
S11313F083E145D061E082E142D00F2EF6E9EF2E81
S1131400F3E0FF2EF02D02E020E030E042E350E074
S11314106EE071E08CEB98E0CCD90F2EF4E9EF2E5E
S1131420F3E0FF2EF02D01E020E030E042E350E055
S113143067E171E08CEE98E0BCD90F2EF2E9EF2E53
S1131440F3E0FF2EF02D00E020E030E042E350E036
S113145061E271E081E399E0ACD90F2EF0E9EF2E5F
S1131460F3E0FF2EF02D03E020E030E042E350E013
S113147068E271E085EA99E09CD9EFD9FFCF962F15
S1131480E82FE695E695E69587704E2F50E04730B5
S1131490510508F09AC0FA01EA5BFF4F8FC54AB3C1
S11314A021E030E0082E02C0220F331F0A94E2F735
S11314B0692F70E002C0660F771F8A95E2F72095C6
S11314C02423622B6ABB089547B321E030E0082E41
S11314D002C0220F331F0A94E2F7692F70E002C0A2
S11314E0660F771F8A95E2F720952423622B67BB4A
S11314F0089544B321E030E0082E02C0220F331FC8
S11315000A94E2F7692F70E002C0660F771F8A958C
S1131510E2F720952423622B64BB089541B321E0B4
S113152030E0082E02C0220F331F0A94E2F7692F1D
S113153070E002C0660F771F8A95E2F72095242396
S1131540622B61BB089542B121E030E0082E02C055
S1131550220F331F0A94E2F7692F70E002C0660F6E
S1131560771F8A95E2F720952423622B62B90895A8
S1131570E1E6F0E0408121E030E0082E02C0220FD5
S1131580331F0A94E2F7692F70E002C0660F771FD9
S11315908A95E2F720952423622B60830895E3E67D
S11315A0F0E0418121E030E0082E02C0220F331F19
S11315B00A94E2F7692F70E002C0660F771F8A95DC
S11315C0E2F720952423622B61830895962FE82F58
S11315D0E695E695E69587704E2F50E04730510525
S11315E008F09AC0FA01E35BFF4FE8C44BB321E073
S11315F030E0082E02C0220F331F0A94E2F7692F4D
S113160070E002C0660F771F8A95E2F720952423C5
S1131610622B6BBB089548B321E030E0082E02C072
S1131620220F331F0A94E2F7692F70E002C0660F9D
S1131630771F8A95E2F720952423622B68BB0895CF
S113164045B321E030E0082E02C0220F331F0A9474
S1131650E2F7692F70E002C0660F771F8A95E2F700
S113166020952423622B65BB089542B321E030E02A
S1131670082E02C0220F331F0A94E2F7692F70E08C
S113168002C0660F771F8A95E2F720952423622B08
S113169062BB089543B121E030E0082E02C0220F5E
S11316A0331F0A94E2F7692F70E002C0660F771FB8
S11316B08A95E2F720952423622B63B90895E2E624
S11316C0F0E0408121E030E0082E02C0220F331FF9
S11316D00A94E2F7692F70E002C0660F771F8A95BB
S11316E0E2F720952423622B60830895E3E6F0E07B
S11316F0428121E030E0082E02C0220F331F0A94F9
S1131700E2F7692F70E002C0660F771F8A95E2F74F
S113171020952423622B62830895E82FE695E695AD
S1131720E69587704E2F50E04730510508F052C0BF
S1131730FA01EC5AFF4F42C429B330E0A90102C0B8
S1131740559547958A95E2F7CA018170089526B3A5
S113175030E0A90102C0559547958A95E2F7CA0180
S11317608170089523B330E0A90102C055954795CF
S11317708A95E2F7CA018170089520B330E0A90187
S113178002C0559547958A95E2F7CA01817008957C
S113179021B130E0A90102C0559547958A95E2F739
S11317A0CA018170089520B130E0A90102C05595A5
S11317B047958A95E2F7CA018170089520916300E4
S11317C030E0A90102C0559547958A95E2F7CA0110
S11317D08170089580E008951F920F920FB60F92C2
S11317E011240BB60F922F933F934F935F936F93F4
S11317F07F938F939F93AF93BF93EF93FF93E09166
S1131800AD03F091AE030995FF91EF91BF91AF91B4
S11318109F918F917F916F915F914F913F912F9104
S11318200F900BBE0F900FBE0F901F901895109243
S11318308B0010928A0010927C0010927D0010920E
S1131840810010928000109289001092880092B159
S11318509F7792B9813031F4EAE8F0E080818064C6
S1131860808305C0EAE8F0E080818F7B8083EAE82A
S1131870F0E08081887F8083109289001092880034
S11318801092810010928000EDE7F0E08081806288
S11318908083ECE7F0E08081806280838FB780688A
S11318A08FBF6034710599F020F46830710549F0F8
S11318B020C0611581E0780781F06115744099F0CA
S11318C018C0EAE8F0E08081826080830895EAE845
S11318D0F0E08081836080830895EAE8F0E080810D
S11318E0846080830895EAE8F0E0808185608083E5
S11318F00895EAE8F0E08081816080830895909300
S1131900AE038093AD030895813031F4EAE8F0E04A
S11319108081806480830895EAE8F0E080818F7B91
S113192080830895809180009091810008951092A1
S1131930890010928800089583B788668F7E83BFDC
S1131940089583B783608B7F83BF089583B7887FAF
S113195083BF0895853678F4282F30E0322F22276C
S11319603695279536952795ABE7B4E130D3969510
S11319708795815081BF08951F920F920FB60F92E1
S113198011240BB60F922F933F934F935F936F9352
S11319907F938F939F93AF93BF93EF93FF93809124
S11319A09A0390919B03019690939B0380939A03CF
S11319B0813D934069F481E782BF10929B031092AA
S11319C09A03E091A003F091A103309709F00995DF
S11319D0FF91EF91BF91AF919F918F917F916F9103
S11319E05F914F913F912F910F900BBE0F900FBEBF
S11319F00F901F9018951F920F920FB60F921124FB
S1131A000BB60F922F933F934F935F936F937F93F4
S1131A108F939F93AF93BF93EF93FF93809198031A
S1131A209091990301969093990380939803209140
S1131A309C0330919D038217930759F410929903E4
S1131A4010929803E0919E03F0919F03309709F060
S1131A500995FF91EF91BF91AF919F918F917F91E4
S1131A606F915F914F913F912F910F900BBE0F900B
S1131A700FBE0F901F9018951F920F920FB60F92E2
S1131A8011240BB60F922F933F934F935F936F9351
S1131A907F938F939F93AF93BF93EF93FF93809123
S1131AA0A2039091A30301969093A3038093A203AE
S1131AB0813D934069F481E784BD1092A3031092A1
S1131AC0A203E091A603F091A703309709F00995CA
S1131AD0FF91EF91BF91AF919F918F917F916F9102
S1131AE05F914F913F912F910F900BBE0F900FBEBE
S1131AF00F901F9018951F920F920FB60F921124FA
S1131B000BB60F922F933F934F935F936F937F93F3
S1131B108F939F93AF93BF93EF93FF93E091A403AD
S1131B20F091A503309709F00995FF91EF91BF91CA
S1131B30AF919F918F917F916F915F914F913F9161
S1131B402F910F900BBE0F900FBE0F901F90189502
S1131B508AB188618AB987E689B98AB180648AB909
S1131B608AB180688AB9E5E9F0E080818062808387
S1131B708081806180838081877F8083808182608F
S1131B80808380818460808308958CB908958091D6
S1131B90AF030895009721F09093AB038093AA03B9
S1131BA00895009721F09093A9038093A8030895C2
S1131BB01F920F920FB60F9211240BB60F922F9310
S1131BC03F934F935F936F937F938F939F93AF93C1
S1131BD0BF93EF93FF93E091AA03F091AB03309787
S1131BE009F00995FF91EF91BF91AF919F918F916A
S1131BF07F916F915F914F913F912F910F900BBE09
S1131C000F900FBE0F901F9018951F920F920FB652
S1131C100F9211240BB60F922F933F934F935F9320
S1131C206F937F938F939F93AF93BF93EF93FF93A0
S1131C30E091A803F091A903309721F08CB180932F
S1131C40AF030995FF91EF91BF91AF919F918F9150
S1131C507F916F915F914F913F912F910F900BBEA8
S1131C600F900FBE0F901F9018955058BB27AA27AE
S1131C700ED0E5C0D6D030F0DBD020F031F49F3F59
S1131C8011F41EF4CBC00EF4E095E7FBC1C0E92FBC
S1131C90E7D080F3BA17620773078407950718F033
S1131CA071F49EF5FFC00EF4E0950B2EBA2FA02D13
S1131CB00B01B90190010C01CA01A0011124FF27F5
S1131CC0591B99F0593F50F4503E68F11A16F040F0
S1131CD0A22F232F342F4427585FF3CF46953795EF
S1131CE02795A795F0405395C9F77EF41F16BA0BB4
S1131CF0620B730B840BBAF09150A1F0FF0FBB1F62
S1131D00661F771F881FC2F70EC0BA0F621F731FAA
S1131D10841F48F4879577956795B795F7959E3F07
S1131D2008F0B3CF9395880F08F09927EE0F979595
S1131D308795089504D06894B111B5C0089598D0DA
S1131D4088F09F5790F0B92F9927B751A0F0D1F0A0
S1131D50660F771F881F991F1AF0BA95C9F712C02A
S1131D60B13081F09FD0B1E008959CC0672F782FE7
S1131D708827B85F39F0B93FCCF386957795679596
S1131D80B395D9F73EF490958095709561957F4F02
S1131D908F4F9F4F0895E89409C097FB3EF49095A8
S1131DA08095709561957F4F8F4F9F4F9923A9F030
S1131DB0F92F96E9BB279395F695879577956795BF
S1131DC0B795F111F8CFFAF4BB0F11F460FF1BC003
S1131DD06F5F7F4F8F4F9F4F16C0882311F096E996
S1131DE011C0772321F09EE8872F762F05C0662344
S1131DF071F096E8862F70E060E02AF09A95660FFD
S1131E00771F881FDAF7880F9695879597F90895B5
S1131E1097F99F6780E870E060E008959FEF80EC99
S1131E20089500240A94161617061806090608953C
S1131E3000240A9412161306140605060895092EA2
S1131E400394000C11F4882352F0BB0F40F4BF2B11
S1131E5011F460FF04C06F5F7F4F8F4F9F4F089551
S1131E6057FD9058440F551F59F05F3F71F0479547
S1131E70880F97FB991F61F09F3F79F0879508952C
S1131E80121613061406551FF2CF4695F1DF08C04B
S1131E90161617061806991FF1CF86957105610568
S1131EA008940895E894BB2766277727CB0197F910
S1131EB008950BD0C4CFB5DF28F0BADF18F095230E
S1131EC009F0A6CFABCF1124EECFCADFA0F3959FC4
S1131ED0D1F3950F50E0551F629FF001729FBB270D
S1131EE0F00DB11D639FAA27F00DB11DAA1F649FB9
S1131EF06627B00DA11D661F829F2227B00DA11D6C
S1131F00621F739FB00DA11D621F839FA00D611DF1
S1131F10221F749F3327A00D611D231F849F600D12
S1131F20211D822F762F6A2F11249F5750408AF04B
S1131F30E1F088234AF0EE0FFF1FBB1F661F771FD7
S1131F40881F91505040A9F79E3F510570F060CF13
S1131F50AACF5F3FECF3983EDCF3869577956795BF
S1131F60B795F795E7959F5FC1F7FE2B880F911DF5
S1131F709695879597F90895A1E21A2EAA1BBB1B83
S1131F80FD010DC0AA1FBB1FEE1FFF1FA217B30741
S1131F90E407F50720F0A21BB30BE40BF50B661F57
S1131FA0771F881F991F1A9469F76095709580951B
S1131FB090959B01AC01BD01CF010895EE0FFF1F69
S1131FC00024001C0BBE0790F691E02D0994A29FFB
S1131FD0B001B39FC001A39F700D811D1124911DF9
S1131FE0B29F700D811D1124911D0895F894FFCFA7
S1131FF0030000003F5014005049444C450047651D
S113200074537461746500536574416374696F6ECD
S113201000536574414343005561727452656365AE
S10720206976650074
S9030000FC
